{
  "_format": "hh-sol-artifact-1",
  "contractName": "T",
  "sourceName": "contracts/token/T.sol",
  "abi": [
    {
      "inputs": [],
      "stateMutability": "nonpayable",
      "type": "constructor"
    },
    {
      "anonymous": false,
      "inputs": [
        {
          "indexed": true,
          "internalType": "address",
          "name": "owner",
          "type": "address"
        },
        {
          "indexed": true,
          "internalType": "address",
          "name": "spender",
          "type": "address"
        },
        {
          "indexed": false,
          "internalType": "uint256",
          "name": "value",
          "type": "uint256"
        }
      ],
      "name": "Approval",
      "type": "event"
    },
    {
      "anonymous": false,
      "inputs": [
        {
          "indexed": true,
          "internalType": "address",
          "name": "delegator",
          "type": "address"
        },
        {
          "indexed": true,
          "internalType": "address",
          "name": "fromDelegate",
          "type": "address"
        },
        {
          "indexed": true,
          "internalType": "address",
          "name": "toDelegate",
          "type": "address"
        }
      ],
      "name": "DelegateChanged",
      "type": "event"
    },
    {
      "anonymous": false,
      "inputs": [
        {
          "indexed": true,
          "internalType": "address",
          "name": "delegate",
          "type": "address"
        },
        {
          "indexed": false,
          "internalType": "uint256",
          "name": "previousBalance",
          "type": "uint256"
        },
        {
          "indexed": false,
          "internalType": "uint256",
          "name": "newBalance",
          "type": "uint256"
        }
      ],
      "name": "DelegateVotesChanged",
      "type": "event"
    },
    {
      "anonymous": false,
      "inputs": [
        {
          "indexed": true,
          "internalType": "address",
          "name": "previousOwner",
          "type": "address"
        },
        {
          "indexed": true,
          "internalType": "address",
          "name": "newOwner",
          "type": "address"
        }
      ],
      "name": "OwnershipTransferred",
      "type": "event"
    },
    {
      "anonymous": false,
      "inputs": [
        {
          "indexed": true,
          "internalType": "address",
          "name": "from",
          "type": "address"
        },
        {
          "indexed": true,
          "internalType": "address",
          "name": "to",
          "type": "address"
        },
        {
          "indexed": false,
          "internalType": "uint256",
          "name": "value",
          "type": "uint256"
        }
      ],
      "name": "Transfer",
      "type": "event"
    },
    {
      "inputs": [],
      "name": "DELEGATION_TYPEHASH",
      "outputs": [
        {
          "internalType": "bytes32",
          "name": "",
          "type": "bytes32"
        }
      ],
      "stateMutability": "view",
      "type": "function"
    },
    {
      "inputs": [],
      "name": "DOMAIN_SEPARATOR",
      "outputs": [
        {
          "internalType": "bytes32",
          "name": "",
          "type": "bytes32"
        }
      ],
      "stateMutability": "view",
      "type": "function"
    },
    {
      "inputs": [],
      "name": "PERMIT_TYPEHASH",
      "outputs": [
        {
          "internalType": "bytes32",
          "name": "",
          "type": "bytes32"
        }
      ],
      "stateMutability": "view",
      "type": "function"
    },
    {
      "inputs": [
        {
          "internalType": "address",
          "name": "",
          "type": "address"
        },
        {
          "internalType": "address",
          "name": "",
          "type": "address"
        }
      ],
      "name": "allowance",
      "outputs": [
        {
          "internalType": "uint256",
          "name": "",
          "type": "uint256"
        }
      ],
      "stateMutability": "view",
      "type": "function"
    },
    {
      "inputs": [
        {
          "internalType": "address",
          "name": "spender",
          "type": "address"
        },
        {
          "internalType": "uint256",
          "name": "amount",
          "type": "uint256"
        }
      ],
      "name": "approve",
      "outputs": [
        {
          "internalType": "bool",
          "name": "",
          "type": "bool"
        }
      ],
      "stateMutability": "nonpayable",
      "type": "function"
    },
    {
      "inputs": [
        {
          "internalType": "address",
          "name": "spender",
          "type": "address"
        },
        {
          "internalType": "uint256",
          "name": "amount",
          "type": "uint256"
        },
        {
          "internalType": "bytes",
          "name": "extraData",
          "type": "bytes"
        }
      ],
      "name": "approveAndCall",
      "outputs": [
        {
          "internalType": "bool",
          "name": "",
          "type": "bool"
        }
      ],
      "stateMutability": "nonpayable",
      "type": "function"
    },
    {
      "inputs": [
        {
          "internalType": "address",
          "name": "",
          "type": "address"
        }
      ],
      "name": "balanceOf",
      "outputs": [
        {
          "internalType": "uint256",
          "name": "",
          "type": "uint256"
        }
      ],
      "stateMutability": "view",
      "type": "function"
    },
    {
      "inputs": [
        {
          "internalType": "uint256",
          "name": "amount",
          "type": "uint256"
        }
      ],
      "name": "burn",
      "outputs": [],
      "stateMutability": "nonpayable",
      "type": "function"
    },
    {
      "inputs": [
        {
          "internalType": "address",
          "name": "account",
          "type": "address"
        },
        {
          "internalType": "uint256",
          "name": "amount",
          "type": "uint256"
        }
      ],
      "name": "burnFrom",
      "outputs": [],
      "stateMutability": "nonpayable",
      "type": "function"
    },
    {
      "inputs": [],
      "name": "cachedChainId",
      "outputs": [
        {
          "internalType": "uint256",
          "name": "",
          "type": "uint256"
        }
      ],
      "stateMutability": "view",
      "type": "function"
    },
    {
      "inputs": [],
      "name": "cachedDomainSeparator",
      "outputs": [
        {
          "internalType": "bytes32",
          "name": "",
          "type": "bytes32"
        }
      ],
      "stateMutability": "view",
      "type": "function"
    },
    {
      "inputs": [
        {
          "internalType": "address",
          "name": "account",
          "type": "address"
        },
        {
          "internalType": "uint32",
          "name": "pos",
          "type": "uint32"
        }
      ],
      "name": "checkpoints",
      "outputs": [
        {
          "components": [
            {
              "internalType": "uint32",
              "name": "fromBlock",
              "type": "uint32"
            },
            {
              "internalType": "uint96",
              "name": "votes",
              "type": "uint96"
            }
          ],
          "internalType": "struct Checkpoints.Checkpoint",
          "name": "checkpoint",
          "type": "tuple"
        }
      ],
      "stateMutability": "view",
      "type": "function"
    },
    {
      "inputs": [],
      "name": "decimals",
      "outputs": [
        {
          "internalType": "uint8",
          "name": "",
          "type": "uint8"
        }
      ],
      "stateMutability": "view",
      "type": "function"
    },
    {
      "inputs": [
        {
          "internalType": "address",
          "name": "delegatee",
          "type": "address"
        }
      ],
      "name": "delegate",
      "outputs": [],
      "stateMutability": "nonpayable",
      "type": "function"
    },
    {
      "inputs": [
        {
          "internalType": "address",
          "name": "signatory",
          "type": "address"
        },
        {
          "internalType": "address",
          "name": "delegatee",
          "type": "address"
        },
        {
          "internalType": "uint256",
          "name": "deadline",
          "type": "uint256"
        },
        {
          "internalType": "uint8",
          "name": "v",
          "type": "uint8"
        },
        {
          "internalType": "bytes32",
          "name": "r",
          "type": "bytes32"
        },
        {
          "internalType": "bytes32",
          "name": "s",
          "type": "bytes32"
        }
      ],
      "name": "delegateBySig",
      "outputs": [],
      "stateMutability": "nonpayable",
      "type": "function"
    },
    {
      "inputs": [
        {
          "internalType": "address",
          "name": "account",
          "type": "address"
        }
      ],
      "name": "delegates",
      "outputs": [
        {
          "internalType": "address",
          "name": "",
          "type": "address"
        }
      ],
      "stateMutability": "view",
      "type": "function"
    },
    {
      "inputs": [
        {
          "internalType": "uint256",
          "name": "blockNumber",
          "type": "uint256"
        }
      ],
      "name": "getPastTotalSupply",
      "outputs": [
        {
          "internalType": "uint96",
          "name": "",
          "type": "uint96"
        }
      ],
      "stateMutability": "view",
      "type": "function"
    },
    {
      "inputs": [
        {
          "internalType": "address",
          "name": "account",
          "type": "address"
        },
        {
          "internalType": "uint256",
          "name": "blockNumber",
          "type": "uint256"
        }
      ],
      "name": "getPastVotes",
      "outputs": [
        {
          "internalType": "uint96",
          "name": "",
          "type": "uint96"
        }
      ],
      "stateMutability": "view",
      "type": "function"
    },
    {
      "inputs": [
        {
          "internalType": "address",
          "name": "account",
          "type": "address"
        }
      ],
      "name": "getVotes",
      "outputs": [
        {
          "internalType": "uint96",
          "name": "",
          "type": "uint96"
        }
      ],
      "stateMutability": "view",
      "type": "function"
    },
    {
      "inputs": [
        {
          "internalType": "address",
          "name": "recipient",
          "type": "address"
        },
        {
          "internalType": "uint256",
          "name": "amount",
          "type": "uint256"
        }
      ],
      "name": "mint",
      "outputs": [],
      "stateMutability": "nonpayable",
      "type": "function"
    },
    {
      "inputs": [],
      "name": "name",
      "outputs": [
        {
          "internalType": "string",
          "name": "",
          "type": "string"
        }
      ],
      "stateMutability": "view",
      "type": "function"
    },
    {
      "inputs": [
        {
          "internalType": "address",
          "name": "",
          "type": "address"
        }
      ],
      "name": "nonce",
      "outputs": [
        {
          "internalType": "uint256",
          "name": "",
          "type": "uint256"
        }
      ],
      "stateMutability": "view",
      "type": "function"
    },
    {
      "inputs": [
        {
          "internalType": "address",
          "name": "account",
          "type": "address"
        }
      ],
      "name": "numCheckpoints",
      "outputs": [
        {
          "internalType": "uint32",
          "name": "",
          "type": "uint32"
        }
      ],
      "stateMutability": "view",
      "type": "function"
    },
    {
      "inputs": [],
      "name": "owner",
      "outputs": [
        {
          "internalType": "address",
          "name": "",
          "type": "address"
        }
      ],
      "stateMutability": "view",
      "type": "function"
    },
    {
      "inputs": [
        {
          "internalType": "address",
          "name": "owner",
          "type": "address"
        },
        {
          "internalType": "address",
          "name": "spender",
          "type": "address"
        },
        {
          "internalType": "uint256",
          "name": "amount",
          "type": "uint256"
        },
        {
          "internalType": "uint256",
          "name": "deadline",
          "type": "uint256"
        },
        {
          "internalType": "uint8",
          "name": "v",
          "type": "uint8"
        },
        {
          "internalType": "bytes32",
          "name": "r",
          "type": "bytes32"
        },
        {
          "internalType": "bytes32",
          "name": "s",
          "type": "bytes32"
        }
      ],
      "name": "permit",
      "outputs": [],
      "stateMutability": "nonpayable",
      "type": "function"
    },
    {
      "inputs": [
        {
          "internalType": "contract IERC20",
          "name": "token",
          "type": "address"
        },
        {
          "internalType": "address",
          "name": "recipient",
          "type": "address"
        },
        {
          "internalType": "uint256",
          "name": "amount",
          "type": "uint256"
        }
      ],
      "name": "recoverERC20",
      "outputs": [],
      "stateMutability": "nonpayable",
      "type": "function"
    },
    {
      "inputs": [
        {
          "internalType": "contract IERC721",
          "name": "token",
          "type": "address"
        },
        {
          "internalType": "address",
          "name": "recipient",
          "type": "address"
        },
        {
          "internalType": "uint256",
          "name": "tokenId",
          "type": "uint256"
        },
        {
          "internalType": "bytes",
          "name": "data",
          "type": "bytes"
        }
      ],
      "name": "recoverERC721",
      "outputs": [],
      "stateMutability": "nonpayable",
      "type": "function"
    },
    {
      "inputs": [],
      "name": "renounceOwnership",
      "outputs": [],
      "stateMutability": "nonpayable",
      "type": "function"
    },
    {
      "inputs": [],
      "name": "symbol",
      "outputs": [
        {
          "internalType": "string",
          "name": "",
          "type": "string"
        }
      ],
      "stateMutability": "view",
      "type": "function"
    },
    {
      "inputs": [],
      "name": "totalSupply",
      "outputs": [
        {
          "internalType": "uint256",
          "name": "",
          "type": "uint256"
        }
      ],
      "stateMutability": "view",
      "type": "function"
    },
    {
      "inputs": [
        {
          "internalType": "address",
          "name": "recipient",
          "type": "address"
        },
        {
          "internalType": "uint256",
          "name": "amount",
          "type": "uint256"
        }
      ],
      "name": "transfer",
      "outputs": [
        {
          "internalType": "bool",
          "name": "",
          "type": "bool"
        }
      ],
      "stateMutability": "nonpayable",
      "type": "function"
    },
    {
      "inputs": [
        {
          "internalType": "address",
          "name": "spender",
          "type": "address"
        },
        {
          "internalType": "address",
          "name": "recipient",
          "type": "address"
        },
        {
          "internalType": "uint256",
          "name": "amount",
          "type": "uint256"
        }
      ],
      "name": "transferFrom",
      "outputs": [
        {
          "internalType": "bool",
          "name": "",
          "type": "bool"
        }
      ],
      "stateMutability": "nonpayable",
      "type": "function"
    },
    {
      "inputs": [
        {
          "internalType": "address",
          "name": "newOwner",
          "type": "address"
        }
      ],
      "name": "transferOwnership",
      "outputs": [],
      "stateMutability": "nonpayable",
      "type": "function"
    }
  ],
  "bytecode": "0x60c06040523480156200001157600080fd5b506040518060400160405280601781526020017f5468726573686f6c64204e6574776f726b20546f6b656e000000000000000000815250604051806040016040528060018152602001601560fa1b8152506200007c62000076620000c260201b60201c565b620000c6565b815162000091906005906020850190620001c7565b508051620000a7906006906020840190620001c7565b5046608052620000b662000116565b60a052506200034e9050565b3390565b600080546001600160a01b038381166001600160a01b0319831681178455604051919092169283917f8be0079c531659141344cd1fd0a4f28419497f9722a3daafe3b4186f6b6457e09190a35050565b60007f8b73c3c69bb8fe3d512ecc4cf759cc79239f7b179b0ffacaa9a75d522b39400f60056040516200014a9190620002aa565b60408051918290038220828201825260018352603160f81b6020938401528151928301939093528101919091527fc89efdaa54c0f20c7adf612882df0950f5a951637e0307cdcb4c672f298b8bc660608201524660808201523060a082015260c00160405160208183030381529060405280519060200120905090565b828054620001d5906200026d565b90600052602060002090601f016020900481019282620001f9576000855562000244565b82601f106200021457805160ff191683800117855562000244565b8280016001018555821562000244579182015b828111156200024457825182559160200191906001019062000227565b506200025292915062000256565b5090565b5b8082111562000252576000815560010162000257565b600181811c908216806200028257607f821691505b60208210811415620002a457634e487b7160e01b600052602260045260246000fd5b50919050565b600080835481600182811c915080831680620002c757607f831692505b6020808410821415620002e857634e487b7160e01b86526022600452602486fd5b818015620002ff5760018114620003115762000340565b60ff1986168952848901965062000340565b60008a81526020902060005b86811015620003385781548b8201529085019083016200031d565b505084890196505b509498975050505050505050565b60805160a0516125ec62000382600039600081816103e101526106a101526000818161034b015261067801526125ec6000f3fe608060405234801561001057600080fd5b506004361061018b5760003560e01c806306fdde0314610190578063095ea7b3146101ae5780631171bda9146101d157806318160ddd146101e657806323b872dd146101fd57806330adf81f14610210578063313ce567146102255780633644e5151461023f5780633a46b1a81461024757806340c10f191461027257806342966c6814610285578063587cde1e146102985780635c19a95c146102c35780636fcfff45146102d657806370a08231146102fe57806370ae92d21461031e578063715018a61461033e578063771da5c51461034657806379cc67901461036d5780638da5cb5b146103805780638e539e8c1461038857806395d89b411461039b5780639ab24eb0146103a3578063a9059cbb146103b6578063b20d7fa9146103c9578063b4f94b2e146103dc578063cae9ca5114610403578063d505accf14610416578063dd62ed3e14610429578063e7a324dc14610454578063f1127ed814610469578063f2fde38b146104a6578063fc4e51f6146104b9575b600080fd5b6101986104cc565b6040516101a59190611e53565b60405180910390f35b6101c16101bc366004611e7b565b61055a565b60405190151581526020016101a5565b6101e46101df366004611ea7565b610570565b005b6101ef60045481565b6040519081526020016101a5565b6101c161020b366004611ea7565b6105c1565b6101ef60008051602061257783398151915281565b61022d601281565b60405160ff90911681526020016101a5565b6101ef610674565b61025a610255366004611e7b565b6106d0565b6040516001600160601b0390911681526020016101a5565b6101e4610280366004611e7b565b6106f2565b6101e4610293366004611ee8565b6107f5565b6102ab6102a6366004611f01565b610802565b6040516001600160a01b0390911681526020016101a5565b6101e46102d1366004611f01565b610820565b6102e96102e4366004611f01565b61082a565b60405163ffffffff90911681526020016101a5565b6101ef61030c366004611f01565b60016020526000908152604090205481565b6101ef61032c366004611f01565b60036020526000908152604090205481565b6101e4610852565b6101ef7f000000000000000000000000000000000000000000000000000000000000000081565b6101e461037b366004611e7b565b61088d565b6102ab610923565b61025a610396366004611ee8565b610932565b61019861093f565b61025a6103b1366004611f01565b61094c565b6101c16103c4366004611e7b565b6109dc565b6101e46103d7366004611f34565b6109e9565b6101ef7f000000000000000000000000000000000000000000000000000000000000000081565b6101c1610411366004611fad565b610bf8565b6101e4610424366004612079565b610c80565b6101ef6104373660046120e7565b600260209081526000928352604080842090915290825290205481565b6101ef60008051602061253783398151915281565b61047c610477366004612120565b610e9c565b60408051825163ffffffff1681526020928301516001600160601b031692810192909252016101a5565b6101e46104b4366004611f01565b610f48565b6101e46104c7366004612157565b610fe5565b600580546104d9906121f5565b80601f0160208091040260200160405190810160405280929190818152602001828054610505906121f5565b80156105525780601f1061052757610100808354040283529160200191610552565b820191906000526020600020905b81548152906001019060200180831161053557829003601f168201915b505050505081565b6000610567338484611076565b50600192915050565b33610579610923565b6001600160a01b0316146105a85760405162461bcd60e51b815260040161059f90612230565b60405180910390fd5b6105bc6001600160a01b0384168383611182565b505050565b6001600160a01b0383166000908152600260209081526040808320338452909152812054600019811461065c57828110156106485760405162461bcd60e51b815260206004820152602160248201527f5472616e7366657220616d6f756e74206578636565647320616c6c6f77616e636044820152606560f81b606482015260840161059f565b61065c8533610657868561227b565b611076565b6106678585856111d4565b60019150505b9392505050565b60007f00000000000000000000000000000000000000000000000000000000000000004614156106c357507f000000000000000000000000000000000000000000000000000000000000000090565b6106cb6113d4565b905090565b6001600160a01b038216600090815260086020526040812061066d9083611483565b336106fb610923565b6001600160a01b0316146107215760405162461bcd60e51b815260040161059f90612230565b6001600160a01b0382166107725760405162461bcd60e51b81526020600482015260186024820152774d696e7420746f20746865207a65726f206164647265737360401b604482015260640161059f565b61077e6000838361157e565b80600460008282546107909190612292565b90915550506001600160a01b038216600090815260016020526040812080548392906107bd908490612292565b90915550506040518181526001600160a01b038316906000906000805160206125578339815191529060200160405180910390a35050565b6107ff338261166a565b50565b6001600160a01b039081166000908152600760205260409020541690565b6107ff3382611746565b6001600160a01b03811660009081526008602052604081205461084c906117e8565b92915050565b3361085b610923565b6001600160a01b0316146108815760405162461bcd60e51b815260040161059f90612230565b61088b6000611851565b565b6001600160a01b03821660009081526002602090815260408083203384529091529020546000198114610919578181101561090a5760405162461bcd60e51b815260206004820152601d60248201527f4275726e20616d6f756e74206578636565647320616c6c6f77616e6365000000604482015260640161059f565b6109198333610657858561227b565b6105bc838361166a565b6000546001600160a01b031690565b600061084c600983611483565b600680546104d9906121f5565b6001600160a01b03811660009081526008602052604081205480156109d3576001600160a01b03831660009081526008602052604090206109ce9061099260018461227b565b815481106109a2576109a26122aa565b90600052602060002090600291828204019190066010029054906101000a90046001600160801b031690565b61066d565b60009392505050565b60006105673384846111d4565b42841015610a2e5760405162461bcd60e51b815260206004820152601260248201527111195b1959d85d1a5bdb88195e1c1a5c995960721b604482015260640161059f565b6fa2a8918ca85bafe22016d0b997e4df60600160ff1b03811115610a645760405162461bcd60e51b815260040161059f906122c0565b8260ff16601b1480610a7957508260ff16601c145b610a955760405162461bcd60e51b815260040161059f906122f5565b6000610a9f610674565b6001600160a01b03881660009081526003602052604081208054600080516020612537833981519152928a9290610ad58361232a565b9190505588604051602001610b0c94939291909384526001600160a01b039290921660208401526040830152606082015260800190565b60405160208183030381529060405280519060200120604051602001610b33929190612345565b604051602081830303815290604052805190602001209050600060018286868660405160008152602001604052604051610b709493929190612360565b6020604051602081039080840390855afa158015610b92573d6000803e3d6000fd5b5050604051601f1901519150506001600160a01b03811615801590610bc85750876001600160a01b0316816001600160a01b0316145b610be45760405162461bcd60e51b815260040161059f9061237e565b610bee8888611746565b5050505050505050565b6000610c04848461055a565b15610c7657604051638f4ffcb160e01b81526001600160a01b03851690638f4ffcb190610c3b9033908790309088906004016123a9565b600060405180830381600087803b158015610c5557600080fd5b505af1158015610c69573d6000803e3d6000fd5b505050506001905061066d565b5060009392505050565b42841015610cc55760405162461bcd60e51b815260206004820152601260248201527114195c9b5a5cdcda5bdb88195e1c1a5c995960721b604482015260640161059f565b6fa2a8918ca85bafe22016d0b997e4df60600160ff1b03811115610cfb5760405162461bcd60e51b815260040161059f906122c0565b8260ff16601b1480610d1057508260ff16601c145b610d2c5760405162461bcd60e51b815260040161059f906122f5565b6000610d36610674565b6001600160a01b03891660009081526003602052604081208054600080516020612577833981519152928c928c928c92909190610d728361232a565b909155506040805160208101969096526001600160a01b0394851690860152929091166060840152608083015260a082015260c0810187905260e00160405160208183030381529060405280519060200120604051602001610dd5929190612345565b604051602081830303815290604052805190602001209050600060018286868660405160008152602001604052604051610e129493929190612360565b6020604051602081039080840390855afa158015610e34573d6000803e3d6000fd5b5050604051601f1901519150506001600160a01b03811615801590610e6a5750886001600160a01b0316816001600160a01b0316145b610e865760405162461bcd60e51b815260040161059f9061237e565b610e91898989611076565b505050505050505050565b60408051808201909152600080825260208201526001600160a01b038316600090815260086020526040812080548291610f1d9163ffffffff8716908110610ee657610ee66122aa565b90600052602060002090600291828204019190066010029054906101000a90046001600160801b031663ffffffff606082901c1691565b6040805180820190915263ffffffff90921682526001600160601b0316602082015295945050505050565b33610f51610923565b6001600160a01b031614610f775760405162461bcd60e51b815260040161059f90612230565b6001600160a01b038116610fdc5760405162461bcd60e51b815260206004820152602660248201527f4f776e61626c653a206e6577206f776e657220697320746865207a65726f206160448201526564647265737360d01b606482015260840161059f565b6107ff81611851565b33610fee610923565b6001600160a01b0316146110145760405162461bcd60e51b815260040161059f90612230565b604051635c46a7ef60e11b81526001600160a01b0386169063b88d4fde9061104890309088908890889088906004016123e6565b600060405180830381600087803b15801561106257600080fd5b505af1158015610e91573d6000803e3d6000fd5b6001600160a01b0383166110cc5760405162461bcd60e51b815260206004820152601d60248201527f417070726f76652066726f6d20746865207a65726f2061646472657373000000604482015260640161059f565b6001600160a01b0382166111205760405162461bcd60e51b815260206004820152601b60248201527a417070726f766520746f20746865207a65726f206164647265737360281b604482015260640161059f565b6001600160a01b0383811660008181526002602090815260408083209487168084529482529182902085905590518481527f8c5be1e5ebec7d5bd14f71427d1e84f3dd0314c0f7b2291e5b200ac8c7c3b92591015b60405180910390a3505050565b604080516001600160a01b038416602482015260448082018490528251808303909101815260649091019091526020810180516001600160e01b031663a9059cbb60e01b1790526105bc9084906118a1565b6001600160a01b03831661122a5760405162461bcd60e51b815260206004820152601e60248201527f5472616e736665722066726f6d20746865207a65726f20616464726573730000604482015260640161059f565b6001600160a01b03821661127f5760405162461bcd60e51b815260206004820152601c60248201527b5472616e7366657220746f20746865207a65726f206164647265737360201b604482015260640161059f565b6001600160a01b0382163014156112d85760405162461bcd60e51b815260206004820152601d60248201527f5472616e7366657220746f2074686520746f6b656e2061646472657373000000604482015260640161059f565b6112e383838361157e565b6001600160a01b0383166000908152600160205260409020548181101561134c5760405162461bcd60e51b815260206004820152601f60248201527f5472616e7366657220616d6f756e7420657863656564732062616c616e636500604482015260640161059f565b611356828261227b565b6001600160a01b03808616600090815260016020526040808220939093559085168152908120805484929061138c908490612292565b92505081905550826001600160a01b0316846001600160a01b0316600080516020612557833981519152846040516113c691815260200190565b60405180910390a350505050565b60007f8b73c3c69bb8fe3d512ecc4cf759cc79239f7b179b0ffacaa9a75d522b39400f6005604051611406919061243a565b60408051918290038220828201825260018352603160f81b6020938401528151928301939093528101919091527fc89efdaa54c0f20c7adf612882df0950f5a951637e0307cdcb4c672f298b8bc660608201524660808201523060a082015260c00160405160208183030381529060405280519060200120905090565b60004382106114cf5760405162461bcd60e51b8152602060048201526018602482015277109b1bd8dac81b9bdd081e595d0819195d195c9b5a5b995960421b604482015260640161059f565b825460005b818110156115585760006114e88284611973565b9050600061152b878381548110611501576115016122aa565b6000918252602090912060028204015463ffffffff60019092166010026101000a900460601c1690565b9050858163ffffffff16111561154357819350611551565b61154e826001612292565b92505b50506114d4565b81156115725761156d8561099260018561227b565b611575565b60005b95945050505050565b60006115898261198e565b90506001600160a01b038416611618576004546001600160601b03906115b0908490612292565b11156115fe5760405162461bcd60e51b815260206004820152601d60248201527f4d6178696d756d20746f74616c20737570706c79206578636565646564000000604482015260640161059f565b61161560096119f6836001600160601b0316611a02565b50505b6001600160a01b0383166116405761163d6009611b5e836001600160601b0316611a02565b50505b61166461164c85610802565b61165585610802565b836001600160601b0316611b6a565b50505050565b6001600160a01b038216600090815260016020526040902054818110156116d15760405162461bcd60e51b815260206004820152601b60248201527a4275726e20616d6f756e7420657863656564732062616c616e636560281b604482015260640161059f565b6116dd8360008461157e565b6116e7828261227b565b6001600160a01b0384166000908152600160205260408120919091556004805484929061171590849061227b565b90915550506040518281526000906001600160a01b0385169060008051602061255783398151915290602001611175565b600061175183610802565b6001600160a01b038416600090815260016020526040812054919250906117779061198e565b6001600160a01b0385811660008181526007602052604080822080546001600160a01b031916898616908117909155905194955093928616927f3134e8a2e6d97e929a7e54011ea5485d7d196dd5f0ba4d4ef95803e8e3fc257f9190a46116648284836001600160601b0316611b6a565b600063ffffffff82111561184d5760405162461bcd60e51b815260206004820152602660248201527f53616665436173743a2076616c756520646f65736e27742066697420696e203360448201526532206269747360d01b606482015260840161059f565b5090565b600080546001600160a01b038381166001600160a01b0319831681178455604051919092169283917f8be0079c531659141344cd1fd0a4f28419497f9722a3daafe3b4186f6b6457e09190a35050565b60006118f6826040518060400160405280602081526020017f5361666545524332303a206c6f772d6c6576656c2063616c6c206661696c6564815250856001600160a01b0316611c839092919063ffffffff16565b8051909150156105bc578080602001905181019061191491906124d6565b6105bc5760405162461bcd60e51b815260206004820152602a60248201527f5361666545524332303a204552433230206f7065726174696f6e20646964206e6044820152691bdd081cdd58d8d9595960b21b606482015260840161059f565b600061198260028484186124f8565b61066d90848416612292565b60006001600160601b0382111561184d5760405162461bcd60e51b815260206004820152602660248201527f53616665436173743a2076616c756520646f65736e27742066697420696e203960448201526536206269747360d01b606482015260840161059f565b600061066d8284612292565b825460009081908015611a2357611a1e8661099260018461227b565b611a26565b60005b6001600160601b03169250611a3f83858763ffffffff16565b91508015611aff576000611a6887611a5860018561227b565b81548110611501576115016122aa565b9050438163ffffffff161415611afd57611aa181611a858561198e565b6001600160601b031660609190911b63ffffffff60601b161790565b87611aad60018561227b565b81548110611abd57611abd6122aa565b90600052602060002090600291828204019190066010026101000a8154816001600160801b0302191690836001600160801b031602179055505050611b56565b505b85611b15611b0c436117e8565b611a858561198e565b81546001818101845560009384526020909320600282040180546001600160801b03938416601093909516929092026101000a938402929093021916179055505b935093915050565b600061066d828461227b565b816001600160a01b0316836001600160a01b031614158015611b8c5750600081115b156105bc576001600160a01b03831615611c08576001600160a01b03831660009081526008602052604081208190611bc790611b5e85611a02565b91509150846001600160a01b03166000805160206125978339815191528383604051611bfd929190918252602082015260400190565b60405180910390a250505b6001600160a01b038216156105bc576001600160a01b03821660009081526008602052604081208190611c3e906119f685611a02565b91509150836001600160a01b03166000805160206125978339815191528383604051611c74929190918252602082015260400190565b60405180910390a25050505050565b6060611c928484600085611c9a565b949350505050565b606082471015611cfb5760405162461bcd60e51b815260206004820152602660248201527f416464726573733a20696e73756666696369656e742062616c616e636520666f6044820152651c8818d85b1b60d21b606482015260840161059f565b843b611d495760405162461bcd60e51b815260206004820152601d60248201527f416464726573733a2063616c6c20746f206e6f6e2d636f6e7472616374000000604482015260640161059f565b600080866001600160a01b03168587604051611d65919061251a565b60006040518083038185875af1925050503d8060008114611da2576040519150601f19603f3d011682016040523d82523d6000602084013e611da7565b606091505b5091509150611db7828286611dc2565b979650505050505050565b60608315611dd157508161066d565b825115611de15782518084602001fd5b8160405162461bcd60e51b815260040161059f9190611e53565b60005b83811015611e16578181015183820152602001611dfe565b838111156116645750506000910152565b60008151808452611e3f816020860160208601611dfb565b601f01601f19169290920160200192915050565b60208152600061066d6020830184611e27565b6001600160a01b03811681146107ff57600080fd5b60008060408385031215611e8e57600080fd5b8235611e9981611e66565b946020939093013593505050565b600080600060608486031215611ebc57600080fd5b8335611ec781611e66565b92506020840135611ed781611e66565b929592945050506040919091013590565b600060208284031215611efa57600080fd5b5035919050565b600060208284031215611f1357600080fd5b813561066d81611e66565b803560ff81168114611f2f57600080fd5b919050565b60008060008060008060c08789031215611f4d57600080fd5b8635611f5881611e66565b95506020870135611f6881611e66565b945060408701359350611f7d60608801611f1e565b92506080870135915060a087013590509295509295509295565b634e487b7160e01b600052604160045260246000fd5b600080600060608486031215611fc257600080fd5b8335611fcd81611e66565b92506020840135915060408401356001600160401b0380821115611ff057600080fd5b818601915086601f83011261200457600080fd5b81358181111561201657612016611f97565b604051601f8201601f19908116603f0116810190838211818310171561203e5761203e611f97565b8160405282815289602084870101111561205757600080fd5b8260208601602083013760006020848301015280955050505050509250925092565b600080600080600080600060e0888a03121561209457600080fd5b873561209f81611e66565b965060208801356120af81611e66565b955060408801359450606088013593506120cb60808901611f1e565b925060a0880135915060c0880135905092959891949750929550565b600080604083850312156120fa57600080fd5b823561210581611e66565b9150602083013561211581611e66565b809150509250929050565b6000806040838503121561213357600080fd5b823561213e81611e66565b9150602083013563ffffffff8116811461211557600080fd5b60008060008060006080868803121561216f57600080fd5b853561217a81611e66565b9450602086013561218a81611e66565b93506040860135925060608601356001600160401b03808211156121ad57600080fd5b818801915088601f8301126121c157600080fd5b8135818111156121d057600080fd5b8960208285010111156121e257600080fd5b9699959850939650602001949392505050565b600181811c9082168061220957607f821691505b6020821081141561222a57634e487b7160e01b600052602260045260246000fd5b50919050565b6020808252818101527f4f776e61626c653a2063616c6c6572206973206e6f7420746865206f776e6572604082015260600190565b634e487b7160e01b600052601160045260246000fd5b60008282101561228d5761228d612265565b500390565b600082198211156122a5576122a5612265565b500190565b634e487b7160e01b600052603260045260246000fd5b6020808252601b908201527a496e76616c6964207369676e6174757265202773272076616c756560281b604082015260600190565b6020808252601b908201527a496e76616c6964207369676e6174757265202776272076616c756560281b604082015260600190565b600060001982141561233e5761233e612265565b5060010190565b61190160f01b81526002810192909252602282015260420190565b93845260ff9290921660208401526040830152606082015260800190565b602080825260119082015270496e76616c6964207369676e617475726560781b604082015260600190565b6001600160a01b03858116825260208201859052831660408201526080606082018190526000906123dc90830184611e27565b9695505050505050565b6001600160a01b038681168252851660208201526040810184905260806060820181905281018290526000828460a0840137600060a0848401015260a0601f19601f85011683010190509695505050505050565b600080835481600182811c91508083168061245657607f831692505b602080841082141561247657634e487b7160e01b86526022600452602486fd5b81801561248a576001811461249b576124c8565b60ff198616895284890196506124c8565b60008a81526020902060005b868110156124c05781548b8201529085019083016124a7565b505084890196505b509498975050505050505050565b6000602082840312156124e857600080fd5b8151801515811461066d57600080fd5b60008261251557634e487b7160e01b600052601260045260246000fd5b500490565b6000825161252c818460208701611dfb565b919091019291505056fe76995fe87be88484696cfd6792aeb71e0b61f81dfa3b641e5adffa38a0d3b8e2ddf252ad1be2c89b69c2b068fc378daa952ba7f163c4a11628f55a4df523b3ef6e71edae12b1b97f4d1f60370fef10105fa2faae0126114a169c64845d6126c9dec2bacdd2f05b59de34da9b523dff8be42e5e38e818c82fdb0bae774387a724a2646970667358221220fd7de28590a216e9c0e8d3f1144d65e02d013c41c4aa2ea579ef764bfabab37564736f6c63430008090033",
  "linkReferences": {},
  "deployedLinkReferences": {}
}