{
  "_format": "hh-sol-artifact-1",
  "contractName": "TokenStaking",
  "sourceName": "contracts/staking/TokenStaking.sol",
  "abi": [
    {
      "inputs": [
        {
          "internalType": "contract T",
          "name": "_token",
          "type": "address"
        },
        {
          "internalType": "contract IKeepTokenStaking",
          "name": "_keepStakingContract",
          "type": "address"
        },
        {
          "internalType": "contract INuCypherStakingEscrow",
          "name": "_nucypherStakingContract",
          "type": "address"
        },
        {
          "internalType": "contract VendingMachine",
          "name": "_keepVendingMachine",
          "type": "address"
        },
        {
          "internalType": "contract VendingMachine",
          "name": "_nucypherVendingMachine",
          "type": "address"
        },
        {
          "internalType": "contract KeepStake",
          "name": "_keepStake",
          "type": "address"
        }
      ],
      "stateMutability": "nonpayable",
      "type": "constructor"
    },
    {
      "anonymous": false,
      "inputs": [
        {
          "indexed": true,
          "internalType": "address",
          "name": "application",
          "type": "address"
        },
        {
          "indexed": true,
          "internalType": "enum TokenStaking.ApplicationStatus",
          "name": "newStatus",
          "type": "uint8"
        }
      ],
      "name": "ApplicationStatusChanged",
      "type": "event"
    },
    {
      "anonymous": false,
      "inputs": [
        {
          "indexed": false,
          "internalType": "uint256",
          "name": "ceiling",
          "type": "uint256"
        }
      ],
      "name": "AuthorizationCeilingSet",
      "type": "event"
    },
    {
      "anonymous": false,
      "inputs": [
        {
          "indexed": true,
          "internalType": "address",
          "name": "stakingProvider",
          "type": "address"
        },
        {
          "indexed": true,
          "internalType": "address",
          "name": "application",
          "type": "address"
        },
        {
          "indexed": false,
          "internalType": "uint96",
          "name": "fromAmount",
          "type": "uint96"
        },
        {
          "indexed": false,
          "internalType": "uint96",
          "name": "toAmount",
          "type": "uint96"
        }
      ],
      "name": "AuthorizationDecreaseApproved",
      "type": "event"
    },
    {
      "anonymous": false,
      "inputs": [
        {
          "indexed": true,
          "internalType": "address",
          "name": "stakingProvider",
          "type": "address"
        },
        {
          "indexed": true,
          "internalType": "address",
          "name": "application",
          "type": "address"
        },
        {
          "indexed": false,
          "internalType": "uint96",
          "name": "fromAmount",
          "type": "uint96"
        },
        {
          "indexed": false,
          "internalType": "uint96",
          "name": "toAmount",
          "type": "uint96"
        }
      ],
      "name": "AuthorizationDecreaseRequested",
      "type": "event"
    },
    {
      "anonymous": false,
      "inputs": [
        {
          "indexed": true,
          "internalType": "address",
          "name": "stakingProvider",
          "type": "address"
        },
        {
          "indexed": true,
          "internalType": "address",
          "name": "application",
          "type": "address"
        },
        {
          "indexed": false,
          "internalType": "uint96",
          "name": "fromAmount",
          "type": "uint96"
        },
        {
          "indexed": false,
          "internalType": "uint96",
          "name": "toAmount",
          "type": "uint96"
        }
      ],
      "name": "AuthorizationIncreased",
      "type": "event"
    },
    {
      "anonymous": false,
      "inputs": [
        {
          "indexed": true,
          "internalType": "address",
          "name": "stakingProvider",
          "type": "address"
        },
        {
          "indexed": true,
          "internalType": "address",
          "name": "application",
          "type": "address"
        },
        {
          "indexed": false,
          "internalType": "uint96",
          "name": "fromAmount",
          "type": "uint96"
        },
        {
          "indexed": false,
          "internalType": "uint96",
          "name": "toAmount",
          "type": "uint96"
        },
        {
          "indexed": true,
          "internalType": "bool",
          "name": "successfulCall",
          "type": "bool"
        }
      ],
      "name": "AuthorizationInvoluntaryDecreased",
      "type": "event"
    },
    {
      "anonymous": false,
      "inputs": [
        {
          "indexed": true,
          "internalType": "address",
          "name": "delegator",
          "type": "address"
        },
        {
          "indexed": true,
          "internalType": "address",
          "name": "fromDelegate",
          "type": "address"
        },
        {
          "indexed": true,
          "internalType": "address",
          "name": "toDelegate",
          "type": "address"
        }
      ],
      "name": "DelegateChanged",
      "type": "event"
    },
    {
      "anonymous": false,
      "inputs": [
        {
          "indexed": true,
          "internalType": "address",
          "name": "delegate",
          "type": "address"
        },
        {
          "indexed": false,
          "internalType": "uint256",
          "name": "previousBalance",
          "type": "uint256"
        },
        {
          "indexed": false,
          "internalType": "uint256",
          "name": "newBalance",
          "type": "uint256"
        }
      ],
      "name": "DelegateVotesChanged",
      "type": "event"
    },
    {
      "anonymous": false,
      "inputs": [
        {
          "indexed": false,
          "internalType": "address",
          "name": "oldGovernance",
          "type": "address"
        },
        {
          "indexed": false,
          "internalType": "address",
          "name": "newGovernance",
          "type": "address"
        }
      ],
      "name": "GovernanceTransferred",
      "type": "event"
    },
    {
      "anonymous": false,
      "inputs": [
        {
          "indexed": false,
          "internalType": "uint96",
          "name": "amount",
          "type": "uint96"
        }
      ],
      "name": "MinimumStakeAmountSet",
      "type": "event"
    },
    {
      "anonymous": false,
      "inputs": [
        {
          "indexed": false,
          "internalType": "uint96",
          "name": "reward",
          "type": "uint96"
        }
      ],
      "name": "NotificationRewardPushed",
      "type": "event"
    },
    {
      "anonymous": false,
      "inputs": [
        {
          "indexed": false,
          "internalType": "uint96",
          "name": "reward",
          "type": "uint96"
        }
      ],
      "name": "NotificationRewardSet",
      "type": "event"
    },
    {
      "anonymous": false,
      "inputs": [
        {
          "indexed": false,
          "internalType": "address",
          "name": "recipient",
          "type": "address"
        },
        {
          "indexed": false,
          "internalType": "uint96",
          "name": "amount",
          "type": "uint96"
        }
      ],
      "name": "NotificationRewardWithdrawn",
      "type": "event"
    },
    {
      "anonymous": false,
      "inputs": [
        {
          "indexed": true,
          "internalType": "address",
          "name": "notifier",
          "type": "address"
        },
        {
          "indexed": false,
          "internalType": "uint256",
          "name": "amount",
          "type": "uint256"
        }
      ],
      "name": "NotifierRewarded",
      "type": "event"
    },
    {
      "anonymous": false,
      "inputs": [
        {
          "indexed": true,
          "internalType": "address",
          "name": "stakingProvider",
          "type": "address"
        },
        {
          "indexed": true,
          "internalType": "address",
          "name": "oldOwner",
          "type": "address"
        },
        {
          "indexed": true,
          "internalType": "address",
          "name": "newOwner",
          "type": "address"
        }
      ],
      "name": "OwnerRefreshed",
      "type": "event"
    },
    {
      "anonymous": false,
      "inputs": [
        {
          "indexed": true,
          "internalType": "address",
          "name": "application",
          "type": "address"
        },
        {
          "indexed": true,
          "internalType": "address",
          "name": "panicButton",
          "type": "address"
        }
      ],
      "name": "PanicButtonSet",
      "type": "event"
    },
    {
      "anonymous": false,
      "inputs": [
        {
          "indexed": true,
          "internalType": "address",
          "name": "caller",
          "type": "address"
        },
        {
          "indexed": false,
          "internalType": "uint256",
          "name": "count",
          "type": "uint256"
        },
        {
          "indexed": false,
          "internalType": "uint256",
          "name": "tAmount",
          "type": "uint256"
        }
      ],
      "name": "SlashingProcessed",
      "type": "event"
    },
    {
      "anonymous": false,
      "inputs": [
        {
          "indexed": false,
          "internalType": "uint96",
          "name": "penalty",
          "type": "uint96"
        },
        {
          "indexed": false,
          "internalType": "uint256",
          "name": "rewardMultiplier",
          "type": "uint256"
        }
      ],
      "name": "StakeDiscrepancyPenaltySet",
      "type": "event"
    },
    {
      "anonymous": false,
      "inputs": [
        {
          "indexed": true,
          "internalType": "enum IStaking.StakeType",
          "name": "stakeType",
          "type": "uint8"
        },
        {
          "indexed": true,
          "internalType": "address",
          "name": "owner",
          "type": "address"
        },
        {
          "indexed": true,
          "internalType": "address",
          "name": "stakingProvider",
          "type": "address"
        },
        {
          "indexed": false,
          "internalType": "address",
          "name": "beneficiary",
          "type": "address"
        },
        {
          "indexed": false,
          "internalType": "address",
          "name": "authorizer",
          "type": "address"
        },
        {
          "indexed": false,
          "internalType": "uint96",
          "name": "amount",
          "type": "uint96"
        }
      ],
      "name": "Staked",
      "type": "event"
    },
    {
      "anonymous": false,
      "inputs": [
        {
          "indexed": true,
          "internalType": "address",
          "name": "stakingProvider",
          "type": "address"
        },
        {
          "indexed": false,
          "internalType": "uint96",
          "name": "amount",
          "type": "uint96"
        },
        {
          "indexed": true,
          "internalType": "bool",
          "name": "discrepancy",
          "type": "bool"
        }
      ],
      "name": "TokensSeized",
      "type": "event"
    },
    {
      "anonymous": false,
      "inputs": [
        {
          "indexed": true,
          "internalType": "address",
          "name": "stakingProvider",
          "type": "address"
        },
        {
          "indexed": false,
          "internalType": "uint96",
          "name": "amount",
          "type": "uint96"
        }
      ],
      "name": "ToppedUp",
      "type": "event"
    },
    {
      "anonymous": false,
      "inputs": [
        {
          "indexed": true,
          "internalType": "address",
          "name": "stakingProvider",
          "type": "address"
        },
        {
          "indexed": false,
          "internalType": "uint96",
          "name": "amount",
          "type": "uint96"
        }
      ],
      "name": "Unstaked",
      "type": "event"
    },
    {
      "inputs": [
        {
          "internalType": "address",
          "name": "",
          "type": "address"
        }
      ],
      "name": "applicationInfo",
      "outputs": [
        {
          "internalType": "enum TokenStaking.ApplicationStatus",
          "name": "status",
          "type": "uint8"
        },
        {
          "internalType": "address",
          "name": "panicButton",
          "type": "address"
        }
      ],
      "stateMutability": "view",
      "type": "function"
    },
    {
      "inputs": [
        {
          "internalType": "uint256",
          "name": "",
          "type": "uint256"
        }
      ],
      "name": "applications",
      "outputs": [
        {
          "internalType": "address",
          "name": "",
          "type": "address"
        }
      ],
      "stateMutability": "view",
      "type": "function"
    },
    {
      "inputs": [
        {
          "internalType": "address",
          "name": "application",
          "type": "address"
        }
      ],
      "name": "approveApplication",
      "outputs": [],
      "stateMutability": "nonpayable",
      "type": "function"
    },
    {
      "inputs": [
        {
          "internalType": "address",
          "name": "stakingProvider",
          "type": "address"
        }
      ],
      "name": "approveAuthorizationDecrease",
      "outputs": [
        {
          "internalType": "uint96",
          "name": "",
          "type": "uint96"
        }
      ],
      "stateMutability": "nonpayable",
      "type": "function"
    },
    {
      "inputs": [],
      "name": "authorizationCeiling",
      "outputs": [
        {
          "internalType": "uint256",
          "name": "",
          "type": "uint256"
        }
      ],
      "stateMutability": "view",
      "type": "function"
    },
    {
      "inputs": [
        {
          "internalType": "address",
          "name": "stakingProvider",
          "type": "address"
        },
        {
          "internalType": "address",
          "name": "application",
          "type": "address"
        }
      ],
      "name": "authorizedStake",
      "outputs": [
        {
          "internalType": "uint96",
          "name": "",
          "type": "uint96"
        }
      ],
      "stateMutability": "view",
      "type": "function"
    },
    {
      "inputs": [
        {
          "internalType": "address",
          "name": "account",
          "type": "address"
        },
        {
          "internalType": "uint32",
          "name": "pos",
          "type": "uint32"
        }
      ],
      "name": "checkpoints",
      "outputs": [
        {
          "components": [
            {
              "internalType": "uint32",
              "name": "fromBlock",
              "type": "uint32"
            },
            {
              "internalType": "uint96",
              "name": "votes",
              "type": "uint96"
            }
          ],
          "internalType": "struct Checkpoints.Checkpoint",
          "name": "checkpoint",
          "type": "tuple"
        }
      ],
      "stateMutability": "view",
      "type": "function"
    },
    {
      "inputs": [
        {
          "internalType": "address",
          "name": "stakingProvider",
          "type": "address"
        },
        {
          "internalType": "address",
          "name": "delegatee",
          "type": "address"
        }
      ],
      "name": "delegateVoting",
      "outputs": [],
      "stateMutability": "nonpayable",
      "type": "function"
    },
    {
      "inputs": [
        {
          "internalType": "address",
          "name": "account",
          "type": "address"
        }
      ],
      "name": "delegates",
      "outputs": [
        {
          "internalType": "address",
          "name": "",
          "type": "address"
        }
      ],
      "stateMutability": "view",
      "type": "function"
    },
    {
      "inputs": [
        {
          "internalType": "address",
          "name": "application",
          "type": "address"
        }
      ],
      "name": "disableApplication",
      "outputs": [],
      "stateMutability": "nonpayable",
      "type": "function"
    },
    {
      "inputs": [
        {
          "internalType": "address",
          "name": "stakingProvider",
          "type": "address"
        },
        {
          "internalType": "address",
          "name": "application",
          "type": "address"
        }
      ],
      "name": "forceDecreaseAuthorization",
      "outputs": [],
      "stateMutability": "nonpayable",
      "type": "function"
    },
    {
      "inputs": [],
      "name": "getApplicationsLength",
      "outputs": [
        {
          "internalType": "uint256",
          "name": "",
          "type": "uint256"
        }
      ],
      "stateMutability": "view",
      "type": "function"
    },
    {
      "inputs": [
        {
          "internalType": "address",
          "name": "stakingProvider",
          "type": "address"
        },
        {
          "internalType": "address",
          "name": "application",
          "type": "address"
        }
      ],
      "name": "getAvailableToAuthorize",
      "outputs": [
        {
          "internalType": "uint96",
          "name": "availableTValue",
          "type": "uint96"
        }
      ],
      "stateMutability": "view",
      "type": "function"
    },
    {
      "inputs": [
        {
          "internalType": "address",
          "name": "stakingProvider",
          "type": "address"
        },
        {
          "internalType": "enum IStaking.StakeType",
          "name": "stakeTypes",
          "type": "uint8"
        }
      ],
      "name": "getMinStaked",
      "outputs": [
        {
          "internalType": "uint96",
          "name": "",
          "type": "uint96"
        }
      ],
      "stateMutability": "view",
      "type": "function"
    },
    {
      "inputs": [
        {
          "internalType": "uint256",
          "name": "blockNumber",
          "type": "uint256"
        }
      ],
      "name": "getPastTotalSupply",
      "outputs": [
        {
          "internalType": "uint96",
          "name": "",
          "type": "uint96"
        }
      ],
      "stateMutability": "view",
      "type": "function"
    },
    {
      "inputs": [
        {
          "internalType": "address",
          "name": "account",
          "type": "address"
        },
        {
          "internalType": "uint256",
          "name": "blockNumber",
          "type": "uint256"
        }
      ],
      "name": "getPastVotes",
      "outputs": [
        {
          "internalType": "uint96",
          "name": "",
          "type": "uint96"
        }
      ],
      "stateMutability": "view",
      "type": "function"
    },
    {
      "inputs": [],
      "name": "getSlashingQueueLength",
      "outputs": [
        {
          "internalType": "uint256",
          "name": "",
          "type": "uint256"
        }
      ],
      "stateMutability": "view",
      "type": "function"
    },
    {
      "inputs": [
        {
          "internalType": "address",
          "name": "stakingProvider",
          "type": "address"
        }
      ],
      "name": "getStartStakingTimestamp",
      "outputs": [
        {
          "internalType": "uint256",
          "name": "",
          "type": "uint256"
        }
      ],
      "stateMutability": "view",
      "type": "function"
    },
    {
      "inputs": [
        {
          "internalType": "address",
          "name": "account",
          "type": "address"
        }
      ],
      "name": "getVotes",
      "outputs": [
        {
          "internalType": "uint96",
          "name": "",
          "type": "uint96"
        }
      ],
      "stateMutability": "view",
      "type": "function"
    },
    {
      "inputs": [],
      "name": "governance",
      "outputs": [
        {
          "internalType": "address",
          "name": "",
          "type": "address"
        }
      ],
      "stateMutability": "view",
      "type": "function"
    },
    {
      "inputs": [
        {
          "internalType": "address",
          "name": "stakingProvider",
          "type": "address"
        },
        {
          "internalType": "address",
          "name": "application",
          "type": "address"
        },
        {
          "internalType": "uint96",
          "name": "amount",
          "type": "uint96"
        }
      ],
      "name": "increaseAuthorization",
      "outputs": [],
      "stateMutability": "nonpayable",
      "type": "function"
    },
    {
      "inputs": [],
      "name": "initialize",
      "outputs": [],
      "stateMutability": "nonpayable",
      "type": "function"
    },
    {
      "inputs": [],
      "name": "minTStakeAmount",
      "outputs": [
        {
          "internalType": "uint96",
          "name": "",
          "type": "uint96"
        }
      ],
      "stateMutability": "view",
      "type": "function"
    },
    {
      "inputs": [],
      "name": "notificationReward",
      "outputs": [
        {
          "internalType": "uint256",
          "name": "",
          "type": "uint256"
        }
      ],
      "stateMutability": "view",
      "type": "function"
    },
    {
      "inputs": [],
      "name": "notifiersTreasury",
      "outputs": [
        {
          "internalType": "uint256",
          "name": "",
          "type": "uint256"
        }
      ],
      "stateMutability": "view",
      "type": "function"
    },
    {
      "inputs": [
        {
          "internalType": "address",
          "name": "stakingProvider",
          "type": "address"
        }
      ],
      "name": "notifyKeepStakeDiscrepancy",
      "outputs": [],
      "stateMutability": "nonpayable",
      "type": "function"
    },
    {
      "inputs": [
        {
          "internalType": "address",
          "name": "stakingProvider",
          "type": "address"
        }
      ],
      "name": "notifyNuStakeDiscrepancy",
      "outputs": [],
      "stateMutability": "nonpayable",
      "type": "function"
    },
    {
      "inputs": [
        {
          "internalType": "address",
          "name": "account",
          "type": "address"
        }
      ],
      "name": "numCheckpoints",
      "outputs": [
        {
          "internalType": "uint32",
          "name": "",
          "type": "uint32"
        }
      ],
      "stateMutability": "view",
      "type": "function"
    },
    {
      "inputs": [
        {
          "internalType": "address",
          "name": "application",
          "type": "address"
        }
      ],
      "name": "pauseApplication",
      "outputs": [],
      "stateMutability": "nonpayable",
      "type": "function"
    },
    {
      "inputs": [
        {
          "internalType": "uint256",
          "name": "count",
          "type": "uint256"
        }
      ],
      "name": "processSlashing",
      "outputs": [],
      "stateMutability": "nonpayable",
      "type": "function"
    },
    {
      "inputs": [
        {
          "internalType": "uint96",
          "name": "reward",
          "type": "uint96"
        }
      ],
      "name": "pushNotificationReward",
      "outputs": [],
      "stateMutability": "nonpayable",
      "type": "function"
    },
    {
      "inputs": [
        {
          "internalType": "address",
          "name": "stakingProvider",
          "type": "address"
        }
      ],
      "name": "refreshKeepStakeOwner",
      "outputs": [],
      "stateMutability": "nonpayable",
      "type": "function"
    },
    {
      "inputs": [
        {
          "internalType": "address",
          "name": "stakingProvider",
          "type": "address"
        },
        {
          "internalType": "address",
          "name": "application",
          "type": "address"
        },
        {
          "internalType": "uint96",
          "name": "amount",
          "type": "uint96"
        }
      ],
      "name": "requestAuthorizationDecrease",
      "outputs": [],
      "stateMutability": "nonpayable",
      "type": "function"
    },
    {
      "inputs": [
        {
          "internalType": "address",
          "name": "stakingProvider",
          "type": "address"
        }
      ],
      "name": "requestAuthorizationDecrease",
      "outputs": [],
      "stateMutability": "nonpayable",
      "type": "function"
    },
    {
      "inputs": [
        {
          "internalType": "address",
          "name": "stakingProvider",
          "type": "address"
        }
      ],
      "name": "rolesOf",
      "outputs": [
        {
          "internalType": "address",
          "name": "owner",
          "type": "address"
        },
        {
          "internalType": "address payable",
          "name": "beneficiary",
          "type": "address"
        },
        {
          "internalType": "address",
          "name": "authorizer",
          "type": "address"
        }
      ],
      "stateMutability": "view",
      "type": "function"
    },
    {
      "inputs": [
        {
          "internalType": "uint96",
          "name": "amount",
          "type": "uint96"
        },
        {
          "internalType": "uint256",
          "name": "rewardMultiplier",
          "type": "uint256"
        },
        {
          "internalType": "address",
          "name": "notifier",
          "type": "address"
        },
        {
          "internalType": "address[]",
          "name": "_stakingProviders",
          "type": "address[]"
        }
      ],
      "name": "seize",
      "outputs": [],
      "stateMutability": "nonpayable",
      "type": "function"
    },
    {
      "inputs": [
        {
          "internalType": "uint256",
          "name": "ceiling",
          "type": "uint256"
        }
      ],
      "name": "setAuthorizationCeiling",
      "outputs": [],
      "stateMutability": "nonpayable",
      "type": "function"
    },
    {
      "inputs": [
        {
          "internalType": "uint96",
          "name": "amount",
          "type": "uint96"
        }
      ],
      "name": "setMinimumStakeAmount",
      "outputs": [],
      "stateMutability": "nonpayable",
      "type": "function"
    },
    {
      "inputs": [
        {
          "internalType": "uint96",
          "name": "reward",
          "type": "uint96"
        }
      ],
      "name": "setNotificationReward",
      "outputs": [],
      "stateMutability": "nonpayable",
      "type": "function"
    },
    {
      "inputs": [
        {
          "internalType": "address",
          "name": "application",
          "type": "address"
        },
        {
          "internalType": "address",
          "name": "panicButton",
          "type": "address"
        }
      ],
      "name": "setPanicButton",
      "outputs": [],
      "stateMutability": "nonpayable",
      "type": "function"
    },
    {
      "inputs": [
        {
          "internalType": "uint96",
          "name": "penalty",
          "type": "uint96"
        },
        {
          "internalType": "uint256",
          "name": "rewardMultiplier",
          "type": "uint256"
        }
      ],
      "name": "setStakeDiscrepancyPenalty",
      "outputs": [],
      "stateMutability": "nonpayable",
      "type": "function"
    },
    {
      "inputs": [
        {
          "internalType": "uint96",
          "name": "amount",
          "type": "uint96"
        },
        {
          "internalType": "address[]",
          "name": "_stakingProviders",
          "type": "address[]"
        }
      ],
      "name": "slash",
      "outputs": [],
      "stateMutability": "nonpayable",
      "type": "function"
    },
    {
      "inputs": [
        {
          "internalType": "uint256",
          "name": "",
          "type": "uint256"
        }
      ],
      "name": "slashingQueue",
      "outputs": [
        {
          "internalType": "address",
          "name": "stakingProvider",
          "type": "address"
        },
        {
          "internalType": "uint96",
          "name": "amount",
          "type": "uint96"
        },
        {
          "internalType": "address",
          "name": "application",
          "type": "address"
        }
      ],
      "stateMutability": "view",
      "type": "function"
    },
    {
      "inputs": [],
      "name": "slashingQueueIndex",
      "outputs": [
        {
          "internalType": "uint256",
          "name": "",
          "type": "uint256"
        }
      ],
      "stateMutability": "view",
      "type": "function"
    },
    {
      "inputs": [
        {
          "internalType": "address",
          "name": "stakingProvider",
          "type": "address"
        },
        {
          "internalType": "address payable",
          "name": "beneficiary",
          "type": "address"
        },
        {
          "internalType": "address",
          "name": "authorizer",
          "type": "address"
        },
        {
          "internalType": "uint96",
          "name": "amount",
          "type": "uint96"
        }
      ],
      "name": "stake",
      "outputs": [],
      "stateMutability": "nonpayable",
      "type": "function"
    },
    {
      "inputs": [],
      "name": "stakeDiscrepancyPenalty",
      "outputs": [
        {
          "internalType": "uint96",
          "name": "",
          "type": "uint96"
        }
      ],
      "stateMutability": "view",
      "type": "function"
    },
    {
      "inputs": [],
      "name": "stakeDiscrepancyRewardMultiplier",
      "outputs": [
        {
          "internalType": "uint256",
          "name": "",
          "type": "uint256"
        }
      ],
      "stateMutability": "view",
      "type": "function"
    },
    {
      "inputs": [
        {
          "internalType": "address",
          "name": "stakingProvider",
          "type": "address"
        }
      ],
      "name": "stakeKeep",
      "outputs": [],
      "stateMutability": "nonpayable",
      "type": "function"
    },
    {
      "inputs": [
        {
          "internalType": "address",
          "name": "stakingProvider",
          "type": "address"
        },
        {
          "internalType": "address payable",
          "name": "beneficiary",
          "type": "address"
        },
        {
          "internalType": "address",
          "name": "authorizer",
          "type": "address"
        }
      ],
      "name": "stakeNu",
      "outputs": [],
      "stateMutability": "nonpayable",
      "type": "function"
    },
    {
      "inputs": [
        {
          "internalType": "address",
          "name": "stakingProvider",
          "type": "address"
        }
      ],
      "name": "stakedNu",
      "outputs": [
        {
          "internalType": "uint256",
          "name": "nuAmount",
          "type": "uint256"
        }
      ],
      "stateMutability": "view",
      "type": "function"
    },
    {
      "inputs": [
        {
          "internalType": "address",
          "name": "stakingProvider",
          "type": "address"
        }
      ],
      "name": "stakes",
      "outputs": [
        {
          "internalType": "uint96",
          "name": "tStake",
          "type": "uint96"
        },
        {
          "internalType": "uint96",
          "name": "keepInTStake",
          "type": "uint96"
        },
        {
          "internalType": "uint96",
          "name": "nuInTStake",
          "type": "uint96"
        }
      ],
      "stateMutability": "view",
      "type": "function"
    },
    {
      "inputs": [
        {
          "internalType": "address",
          "name": "stakingProvider",
          "type": "address"
        },
        {
          "internalType": "uint96",
          "name": "amount",
          "type": "uint96"
        }
      ],
      "name": "topUp",
      "outputs": [],
      "stateMutability": "nonpayable",
      "type": "function"
    },
    {
      "inputs": [
        {
          "internalType": "address",
          "name": "stakingProvider",
          "type": "address"
        }
      ],
      "name": "topUpKeep",
      "outputs": [],
      "stateMutability": "nonpayable",
      "type": "function"
    },
    {
      "inputs": [
        {
          "internalType": "address",
          "name": "stakingProvider",
          "type": "address"
        }
      ],
      "name": "topUpNu",
      "outputs": [],
      "stateMutability": "nonpayable",
      "type": "function"
    },
    {
      "inputs": [
        {
          "internalType": "address",
          "name": "newGuvnor",
          "type": "address"
        }
      ],
      "name": "transferGovernance",
      "outputs": [],
      "stateMutability": "nonpayable",
      "type": "function"
    },
    {
      "inputs": [
        {
          "internalType": "address",
          "name": "stakingProvider",
          "type": "address"
        }
      ],
      "name": "unstakeAll",
      "outputs": [],
      "stateMutability": "nonpayable",
      "type": "function"
    },
    {
      "inputs": [
        {
          "internalType": "address",
          "name": "stakingProvider",
          "type": "address"
        }
      ],
      "name": "unstakeKeep",
      "outputs": [],
      "stateMutability": "nonpayable",
      "type": "function"
    },
    {
      "inputs": [
        {
          "internalType": "address",
          "name": "stakingProvider",
          "type": "address"
        },
        {
          "internalType": "uint96",
          "name": "amount",
          "type": "uint96"
        }
      ],
      "name": "unstakeNu",
      "outputs": [],
      "stateMutability": "nonpayable",
      "type": "function"
    },
    {
      "inputs": [
        {
          "internalType": "address",
          "name": "stakingProvider",
          "type": "address"
        },
        {
          "internalType": "uint96",
          "name": "amount",
          "type": "uint96"
        }
      ],
      "name": "unstakeT",
      "outputs": [],
      "stateMutability": "nonpayable",
      "type": "function"
    },
    {
      "inputs": [
        {
          "internalType": "address",
          "name": "recipient",
          "type": "address"
        },
        {
          "internalType": "uint96",
          "name": "amount",
          "type": "uint96"
        }
      ],
      "name": "withdrawNotificationReward",
      "outputs": [],
      "stateMutability": "nonpayable",
      "type": "function"
    }
  ],
  "bytecode": "0x6101406040523480156200001257600080fd5b50604051620063be380380620063be833981016040819052620000359162000377565b6000866001600160a01b03166318160ddd6040518163ffffffff1660e01b815260040160206040518083038186803b1580156200007157600080fd5b505afa15801562000086573d6000803e3d6000fd5b505050506040513d601f19601f82011682018060405250810190620000ac91906200040b565b1180156200013f5750604051630a57ebcf60e11b8152600060048201819052906001600160a01b038716906314afd79e9060240160206040518083038186803b158015620000f957600080fd5b505afa1580156200010e573d6000803e3d6000fd5b505050506040513d601f19601f8201168201806040525081019062000134919062000425565b6001600160a01b0316145b8015620001c55750604051630bc5b6f360e11b8152600060048201526001600160a01b0385169063178b6de69060240160206040518083038186803b1580156200018857600080fd5b505afa1580156200019d573d6000803e3d6000fd5b505050506040513d601f19601f82011682018060405250810190620001c391906200040b565b155b8015620001e35750620001e3816200035860201b620039ef1760201c565b620002345760405162461bcd60e51b815260206004820152601660248201527f57726f6e6720696e70757420706172616d657465727300000000000000000000604482015260640160405180910390fd5b6001600160a01b0380871660805285811660a05281811660c05284811660e052604080516371ca337d60e01b81529051918516916371ca337d91600480820192602092909190829003018186803b1580156200028f57600080fd5b505afa158015620002a4573d6000803e3d6000fd5b505050506040513d601f19601f82011682018060405250810190620002ca91906200040b565b6101008181525050816001600160a01b03166371ca337d6040518163ffffffff1660e01b815260040160206040518083038186803b1580156200030c57600080fd5b505afa15801562000321573d6000803e3d6000fd5b505050506040513d601f19601f820116820180604052508101906200034791906200040b565b61012052506200044c945050505050565b3b151590565b6001600160a01b03811681146200037457600080fd5b50565b60008060008060008060c087890312156200039157600080fd5b86516200039e816200035e565b6020880151909650620003b1816200035e565b6040880151909550620003c4816200035e565b6060880151909450620003d7816200035e565b6080880151909350620003ea816200035e565b60a0880151909250620003fd816200035e565b809150509295509295509295565b6000602082840312156200041e57600080fd5b5051919050565b6000602082840312156200043857600080fd5b815162000445816200035e565b9392505050565b60805160a05160c05160e0516101005161012051615e7a620005446000396000818161107b015281816117dd0152818161285d015281816141f0015261489b015260008181610d5c01528181613ca5015281816142c90152614bb70152600081816127c50152818161414801526149830152600081816114850152612c5f015260008181610cb501528181611540015281816115f90152818161199a0152818161245401528181613d9b015281816142230152614b25015260008181610af00152818161101f01528181611b5e01528181611f5001528181612bc901528181613080015281816132f901526148260152615e7a6000f3fe608060405234801561001057600080fd5b50600436106102b45760003560e01c8063067e6bb1146102b95780630fa78bf41461030357806316934fc4146103185780631d5270d31461038857806328c8c55f1461039b5780632c686ca0146103ae5780632cd62915146103c15780632de94807146103d857806332719e06146104505780633a46b1a814610477578063402121af1461048a578063434457481461049d57806344e97423146104b0578063483046bb146104b95780634a11fae3146104cc5780634ec0a9fe146104df57806356f958ee146104f2578063570ea46114610505578063587cde1e1461051857806358ccdf38146105385780635961d5e91461054b5780635aa6e6751461055e5780635f2d5030146105715780636d08f5b0146105845780636d9b9a34146105975780636da91d8b146105aa5780636fcfff45146105bd5780637368dba2146105e557806375e0ae5a146105ee578063793c1365146106015780637d0379f01461060a5780638129fc1c1461061d57806381b0a0ce1461062557806383ddba8f1461063857806386d18a251461064b5780638b7adc091461065e5780638e46ecb6146106715780638e539e8c146106845780639ab24eb014610697578063a0d6ff9a146106aa578063a7bb8ba8146106bd578063ad30e4cd146106c6578063af5f24ad146106ce578063b1958150146106e1578063b626ca3e146106f4578063be2f335114610707578063d38bfff41461071a578063d3e25ef31461072d578063d3ecb6cd14610740578063dfefadff14610753578063e009245a14610766578063e3ae4d0a146107ac578063eaa86492146107bf578063ef47bf40146107d2578063f07f91c5146107e5578063f1127ed8146107f8578063f1f6c31514610835578063f6e0faeb1461087a578063f848beff146108a6578063ffd2f984146108b9575b600080fd5b6102ec6102c736600461537a565b603a6020526000908152604090205460ff81169061010090046001600160a01b031682565b6040516102fa9291906153ad565b60405180910390f35b6103166103113660046153e7565b6108c1565b005b61035e61032636600461537a565b6001600160a01b031660009081526039602052604090206002810154600182015491546001600160601b039182169392821692911690565b604080516001600160601b03948516815292841660208401529216918101919091526060016102fa565b6103166103963660046153e7565b6108cf565b6103166103a9366004615437565b6109a6565b6103166103bc36600461537a565b610b27565b6103ca60345481565b6040519081526020016102fa565b6104266103e636600461537a565b6001600160a01b03908116600090815260396020526040902080546001820154600290920154600160601b91829004841694928290048416939190041690565b604080516001600160a01b03948516815292841660208401529216918101919091526060016102fa565b60335461046a90600160a01b90046001600160601b031681565b6040516102fa919061546c565b61046a610485366004615480565b610c43565b61031661049836600461537a565b610c6e565b6103166104ab36600461537a565b610e9a565b6103ca60365481565b6103166104c73660046154ac565b610f91565b6103ca6104da36600461537a565b611053565b6103166104ed36600461537a565b6110a6565b61031661050036600461537a565b61126b565b61031661051336600461537a565b6113be565b61052b61052636600461537a565b61171f565b6040516102fa91906154c7565b610316610546366004615437565b61173d565b6103166105593660046154db565b611920565b60335461052b906001600160a01b031681565b61031661057f366004615535565b611b97565b6103166105923660046154ac565b611ddb565b6103166105a5366004615437565b611e60565b61046a6105b836600461557c565b611f80565b6105d06105cb36600461537a565b6120ef565b60405163ffffffff90911681526020016102fa565b6103ca60385481565b61046a6105fc36600461537a565b612111565b6103ca60375481565b6103166106183660046155ae565b612294565b61031661231f565b6103166106333660046155ca565b6123da565b6103166106463660046156c1565b6125e2565b61031661065936600461537a565b6125ee565b61046a61066c3660046153e7565b6126ea565b61031661067f36600461537a565b61276a565b61046a61069236600461572a565b612959565b61046a6106a536600461537a565b612966565b6103166106b836600461537a565b6129f7565b6103ca603d5481565b603b546103ca565b6103166106dc36600461537a565b612c02565b6103166106ef36600461572a565b612d51565b6103166107023660046153e7565b612db0565b61031661071536600461572a565b612efe565b61031661072836600461537a565b6130a7565b61031661073b3660046154ac565b6130da565b61031661074e366004615437565b613141565b61052b61076136600461572a565b613332565b61046a6107743660046153e7565b6001600160a01b039182166000908152603960209081526040808320939094168252600390920190915220546001600160601b031690565b6103166107ba36600461537a565b61335c565b60355461046a906001600160601b031681565b6103166107e036600461537a565b6134c0565b6103166107f3366004615743565b613609565b61080b610806366004615790565b613616565b60408051825163ffffffff1681526020928301516001600160601b031692810192909252016102fa565b61084861084336600461572a565b6136c2565b604080516001600160a01b0394851681526001600160601b0390931660208401529216918101919091526060016102fa565b6103ca61088836600461537a565b6001600160a01b031660009081526039602052604090206005015490565b6103166108b4366004615535565b61370d565b603c546103ca565b6108cb82826139f5565b5050565b6033546001600160a01b031633146109025760405162461bcd60e51b81526004016108f9906157c7565b60405180910390fd5b6001600160a01b0382166000908152603a602052604090206001815460ff16600381111561093257610932615397565b1461094f5760405162461bcd60e51b81526004016108f9906157fd565b80546001600160a01b038084166101008102610100600160a81b0319909316929092178355604051908516907f5a38ebc6ef9570e77e12b2162c48413d53357005add9be886ab130a58d44feb890600090a3505050565b6001600160a01b038083166000908152603960205260409020548391600160601b9091041615801590610a0b57506001600160a01b038116331480610a0b57506001600160a01b03818116600090815260396020526040902054600160601b90041633145b610a275760405162461bcd60e51b81526004016108f990615832565b6000826001600160601b031611610a505760405162461bcd60e51b81526004016108f990615861565b6001600160a01b038316600090815260396020526040812060028101805491928592610a869084906001600160601b03166158ad565b92506101000a8154816001600160601b0302191690836001600160601b03160217905550836001600160a01b0316600080516020615de583398151915284604051610ad1919061546c565b60405180910390a2610ae38484613aea565b610b216001600160a01b037f00000000000000000000000000000000000000000000000000000000000000001633306001600160601b038716613af6565b50505050565b6001600160a01b038082166000908152603a60205260409020548291610100909104163314610b985760405162461bcd60e51b815260206004820152601e60248201527f43616c6c6572206973206e6f74207468652070616e696320627574746f6e000060448201526064016108f9565b6001600160a01b0382166000908152603a602052604090206001815460ff166003811115610bc857610bc8615397565b14610c0f5760405162461bcd60e51b815260206004820152601760248201527621b0b713ba103830bab9b29030b8383634b1b0ba34b7b760491b60448201526064016108f9565b805460ff1916600290811782556040516001600160a01b03851690600080516020615d6583398151915290600090a3505050565b6001600160a01b0382166000908152600260205260408120610c659083613b02565b90505b92915050565b6001600160a01b038116600090815260396020526040902060018101546001600160601b0316610cb05760405162461bcd60e51b81526004016108f9906158d8565b6000807f00000000000000000000000000000000000000000000000000000000000000006001600160a01b031663fab46d66856040518263ffffffff1660e01b8152600401610cff91906154c7565b60606040518083038186803b158015610d1757600080fd5b505afa158015610d2b573d6000803e3d6000fd5b505050506040513d601f19601f82011682018060405250810190610d4f9190615902565b92505091506000610d80837f0000000000000000000000000000000000000000000000000000000000000000613bfc565b5060018501549091506001600160601b03908116908216811180610da357508215155b610dbf5760405162461bcd60e51b81526004016108f990615930565b6001850180546001600160601b0319166001600160601b0384811691909117909155603554603654610df79288928a92911690613c4e565b506001850154600090610e13906001600160601b031684615961565b905060011515876001600160a01b0316600080516020615d8583398151915283604051610e40919061546c565b60405180910390a38315610e61576001860180546001600160601b03191690555b6001860154610e84908890610e7f906001600160601b031685615961565b613e17565b610e918787836000613e23565b50505050505050565b6033546001600160a01b03163314610ec45760405162461bcd60e51b81526004016108f9906157c7565b6001600160a01b0381166000908152603a602052604090206001815460ff166003811115610ef457610ef4615397565b1480610f1557506002815460ff166003811115610f1357610f13615397565b145b610f5d5760405162461bcd60e51b815260206004820152601960248201527821b0b713ba103234b9b0b136329030b8383634b1b0ba34b7b760391b60448201526064016108f9565b805460ff1916600390811782555b6040516001600160a01b03841690600080516020615d6583398151915290600090a35050565b6000816001600160601b031611610fba5760405162461bcd60e51b81526004016108f990615861565b806001600160601b031660376000828254610fd59190615989565b90915550506040517f9de5348508c6ad1f6ff7fcfb84e126bb094784e85bf83f7e3801bc44f9c6dc979061100a90839061546c565b60405180910390a16110506001600160a01b037f00000000000000000000000000000000000000000000000000000000000000001633306001600160601b038516613af6565b50565b6001600160a01b03811660009081526039602052604081205461109f906001600160601b03167f00000000000000000000000000000000000000000000000000000000000000006140f5565b5092915050565b6001600160a01b038082166000908152603960205260409020548291600160601b909104161580159061110b57506001600160a01b03811633148061110b57506001600160a01b03818116600090815260396020526040902054600160601b90041633145b6111275760405162461bcd60e51b81526004016108f990615832565b6001600160a01b038216600090815260396020526040902060018101546001600160601b03168061118f5760405162461bcd60e51b81526020600482015260126024820152714e6f7468696e6720746f20756e7374616b6560701b60448201526064016108f9565b61119a846001611f80565b6001600160601b0316156111ee5760405162461bcd60e51b815260206004820152601b60248201527a12d9595c081cdd185ad9481cdd1a5b1b08185d5d1a1bdc9a5e9959602a1b60448201526064016108f9565b426201518083600501546112029190615989565b11156112205760405162461bcd60e51b81526004016108f9906159a1565b836001600160a01b0316600080516020615dc583398151915282604051611247919061546c565b60405180910390a26001820180546001600160601b0319169055610b218482613e17565b6001600160a01b038082166000908152603960205260409020548291600160601b90910416158015906112d057506001600160a01b0381163314806112d057506001600160a01b03818116600090815260396020526040902054600160601b90041633145b6112ec5760405162461bcd60e51b81526004016108f990615832565b6001600160a01b0380831660009081526039602052604081208054909261131b91600160601b90041685614143565b82549091506001600160601b039081169082161161134b5760405162461bcd60e51b81526004016108f9906159d8565b8154600090611363906001600160601b031683615961565b9050846001600160a01b0316600080516020615de58339815191528260405161138c919061546c565b60405180910390a282546001600160601b0319166001600160601b0383161783556113b78582613aea565b5050505050565b6001600160a01b0381166113e45760405162461bcd60e51b81526004016108f990615861565b6001600160a01b03808216600090815260396020526040902080549091600160601b90910416156114275760405162461bcd60e51b81526004016108f990615a03565b60006114328361421e565b90506001600160601b03811661145a5760405162461bcd60e51b81526004016108f990615a37565b6001820180546001600160601b0319166001600160601b03831617905560405162f9934b60e11b81527f00000000000000000000000000000000000000000000000000000000000000006001600160a01b0316906301f32696906114c29086906004016154c7565b60206040518083038186803b1580156114da57600080fd5b505afa1580156114ee573d6000803e3d6000fd5b505050506040513d601f19601f820116820180604052508101906115129190615a60565b82546001600160601b0316600160601b6001600160a01b039283160217835560405163fb1677b160e01b81527f00000000000000000000000000000000000000000000000000000000000000009091169063fb1677b1906115779086906004016154c7565b60206040518083038186803b15801561158f57600080fd5b505afa1580156115a3573d6000803e3d6000fd5b505050506040513d601f19601f820116820180604052508101906115c79190615a60565b6002830180546001600160601b0316600160601b6001600160a01b039384160217905560405163ba7bffd360e01b81527f00000000000000000000000000000000000000000000000000000000000000009091169063ba7bffd3906116309086906004016154c7565b60206040518083038186803b15801561164857600080fd5b505afa15801561165c573d6000803e3d6000fd5b505050506040513d601f19601f820116820180604052508101906116809190615a60565b6001830180546001600160a01b0392909216600160601b026001600160601b039092169190911790554260058301556116b98382613aea565b81546001600160a01b0380851691600160601b9004166001808501546002860154604051600080516020615e0583398151915292611712926001600160a01b03600160601b928390048116939290910416908890615a7d565b60405180910390a4505050565b6001600160a01b039081166000908152600160205260409020541690565b6001600160a01b038083166000908152603960205260409020548391600160601b90910416158015906117a257506001600160a01b0381163314806117a257506001600160a01b03818116600090815260396020526040902054600160601b90041633145b6117be5760405162461bcd60e51b81526004016108f990615832565b6001600160a01b038316600090815260396020526040812090611801847f00000000000000000000000000000000000000000000000000000000000000006140f5565b915061180f90508185615961565b93506000846001600160601b0316118015611851575081546001600160601b031661183b866000611f80565b61184590866158ad565b6001600160601b031611155b61186d5760405162461bcd60e51b81526004016108f990615aa9565b426201518083600501546118819190615989565b111561189f5760405162461bcd60e51b81526004016108f9906159a1565b8154849083906000906118bc9084906001600160601b0316615961565b92506101000a8154816001600160601b0302191690836001600160601b031602179055506118ea8585613e17565b846001600160a01b0316600080516020615dc583398151915285604051611911919061546c565b60405180910390a25050505050565b6001600160a01b0384161580159061194057506001600160a01b03831615155b801561195457506001600160a01b03821615155b6119705760405162461bcd60e51b81526004016108f990615861565b6001600160a01b038085166000908152603960205260408082209051637d5a36b360e11b815290927f0000000000000000000000000000000000000000000000000000000000000000169063fab46d66906119cf9089906004016154c7565b60606040518083038186803b1580156119e757600080fd5b505afa1580156119fb573d6000803e3d6000fd5b505050506040513d601f19601f82011682018060405250810190611a1f9190615902565b5091505080158015611a4057508154600160601b90046001600160a01b0316155b611a5c5760405162461bcd60e51b81526004016108f990615a03565b6033546001600160601b03600160a01b909104811690841611611abf5760405162461bcd60e51b815260206004820152601b60248201527a416d6f756e74206973206c657373207468616e206d696e696d756d60281b60448201526064016108f9565b8154600160601b3381026001600160601b039283161784556001840180546001600160a01b03898116840291851691909117909155918516918616026001600160601b031916176002830155426005830155611b1b8684613aea565b6001600160a01b038616336002600080516020615e05833981519152888888604051611b4993929190615a7d565b60405180910390a4611b8f6001600160a01b037f00000000000000000000000000000000000000000000000000000000000000001633306001600160601b038716613af6565b505050505050565b6001600160a01b038084166000908152603960205260409020600201548491600160601b909104163314611bdd5760405162461bcd60e51b81526004016108f990615ad6565b6001600160a01b0383166000908152603a602052604090206001815460ff166003811115611c0d57611c0d615397565b14611c2a5760405162461bcd60e51b81526004016108f9906157fd565b6000836001600160601b031611611c535760405162461bcd60e51b81526004016108f990615861565b6001600160a01b0380861660009081526039602090815260408083209388168352600390930190522080546001600160601b0380861691161015611cd55760405162461bcd60e51b8152602060048201526019602482015278105b5bdd5b9d08195e18d959591cc8185d5d1a1bdc9a5e9959603a1b60448201526064016108f9565b80546001600160601b03808616600160601b02600160601b600160c01b0319831681178455600092611d0d9288928116911617615961565b82546040519192506001600160a01b0380891692908a16917f132e76775c4e3b4b2c36fe4acc18d539b6c34b984ac6ba494a5996c48d8a017491611d5c916001600160601b0316908690615afe565b60405180910390a381546040516306a7f7a960e41b81526001600160a01b03881691636a7f7a9091611da0918b916001600160601b03909116908690600401615b18565b600060405180830381600087803b158015611dba57600080fd5b505af1158015611dce573d6000803e3d6000fd5b5050505050505050505050565b6033546001600160a01b03163314611e055760405162461bcd60e51b81526004016108f9906157c7565b603380546001600160a01b0316600160a01b6001600160601b038416021790556040517f91d1e8918c0ec490b6eccd803db78273458f0a7d4b3915e062f1402e9521f51890611e5590839061546c565b60405180910390a150565b6033546001600160a01b03163314611e8a5760405162461bcd60e51b81526004016108f9906157c7565b603754816001600160601b03161115611ed95760405162461bcd60e51b81526020600482015260116024820152704e6f7420656e6f75676820746f6b656e7360781b60448201526064016108f9565b806001600160601b031660376000828254611ef49190615b42565b9091555050604080516001600160a01b03841681526001600160601b03831660208201527f7083cb4f4c81bb6d7425a5bde6b6969cd8c446730ed572607ef79246bc44ee42910160405180910390a16108cb6001600160a01b037f000000000000000000000000000000000000000000000000000000000000000016836001600160601b0384166142f6565b6001600160a01b038216600090815260396020526040812081805b6004830154811015612012576000836004018281548110611fbe57611fbe615b59565b60009182526020808320909101546001600160a01b031680835260038701909152604090912054909150611ffc9084906001600160601b0316614301565b925050808061200a90615b6f565b915050611f9b565b508061202357600092505050610c68565b600284600281111561203757612037615397565b146120625760028201546120559082906001600160601b0316614318565b61205f9082615b42565b90505b600084600281111561207657612076615397565b1461209e5781546120919082906001600160601b0316614318565b61209b9082615b42565b90505b60018460028111156120b2576120b2615397565b146120dd5760018201546120d09082906001600160601b0316614318565b6120da9082615b42565b90505b6120e681614327565b95945050505050565b6001600160a01b038116600090815260026020526040812054610c6890614393565b336000908152603a602052604081206001815460ff16600381111561213857612138615397565b146121555760405162461bcd60e51b81526004016108f9906157fd565b6001600160a01b0383166000908152603960209081526040808320338452600381019092529091208054600160601b90046001600160601b03166121d95760405162461bcd60e51b815260206004820152601b60248201527a4e6f206465617574686f72697a696e6720696e2070726f6365737360281b60448201526064016108f9565b80546001600160601b0380821691600160601b9004168260006121fc8385615961565b82546101009290920a6001600160601b038181021990931691831602179091558354600160601b600160c01b0319811685556040513393506001600160a01b038a1692600080516020615da58339815191529261225f9287929190911690615afe565b60405180910390a381546001600160601b0316612281576122818360016143f8565b50546001600160601b0316949350505050565b6033546001600160a01b031633146122be5760405162461bcd60e51b81526004016108f9906157c7565b603580546001600160601b0319166001600160601b038416908117909155603682905560408051918252602082018390527f3f84f36f8e044bbbc00d303ae27c8871614781ac684742a3d8db7eb2eb98785f91015b60405180910390a15050565b600054610100900460ff1680612338575060005460ff16155b61239b5760405162461bcd60e51b815260206004820152602e60248201527f496e697469616c697a61626c653a20636f6e747261637420697320616c72656160448201526d191e481a5b9a5d1a585b1a5e995960921b60648201526084016108f9565b600054610100900460ff161580156123bd576000805461ffff19166101011790555b6123c63361457f565b8015611050576000805461ff001916905550565b6001600160a01b038316158015906123fa57506001600160a01b03821615155b801561240e57506001600160a01b03811615155b61242a5760405162461bcd60e51b81526004016108f990615861565b6001600160a01b038084166000908152603960205260408082209051637d5a36b360e11b815290927f0000000000000000000000000000000000000000000000000000000000000000169063fab46d66906124899088906004016154c7565b60606040518083038186803b1580156124a157600080fd5b505afa1580156124b5573d6000803e3d6000fd5b505050506040513d601f19601f820116820180604052508101906124d99190615902565b50915050801580156124fa57508154600160601b90046001600160a01b0316155b6125165760405162461bcd60e51b81526004016108f990615a03565b60006125223387614143565b90506000816001600160601b03161161254d5760405162461bcd60e51b81526004016108f990615a37565b600160601b3381026001600160601b038084169190911785556002850180546001600160a01b0388811685029184169190911790915560018601805491891690930291161790554260058401556125a48682613aea565b6001600160a01b038616336000600080516020615e058339815191528888866040516125d293929190615a7d565b60405180910390a4505050505050565b610b21848484846145d2565b6001600160a01b038116600090815260396020526040812090805b600483015481101561269257600083600401828154811061262c5761262c615b59565b60009182526020808320909101546001600160a01b0316808352600387019091526040909120549091506001600160601b0316801561267d57612670868383611b97565b61267a81856158ad565b93505b5050808061268a90615b6f565b915050612609565b506000816001600160601b0316116126e55760405162461bcd60e51b8152602060048201526016602482015275139bdd1a1a5b99c81dd85cc8185d5d1a1bdc9a5e995960521b60448201526064016108f9565b505050565b6001600160a01b03821660009081526039602052604081208054600182015460028301546001600160601b039283169261272792811691166158ad565b61273191906158ad565b6001600160a01b0384166000908152600383016020526040902054909250612762906001600160601b031683615961565b949350505050565b6001600160a01b038116600090815260396020526040902080546001600160601b03166127a95760405162461bcd60e51b81526004016108f9906158d8565b8054604051630bc5b6f360e11b81526000916001600160a01b037f000000000000000000000000000000000000000000000000000000000000000081169263178b6de69261280392600160601b90910416906004016154c7565b60206040518083038186803b15801561281b57600080fd5b505afa15801561282f573d6000803e3d6000fd5b505050506040513d601f19601f820116820180604052508101906128539190615b8a565b90506000612881827f0000000000000000000000000000000000000000000000000000000000000000613bfc565b5083549091506001600160601b0390811690821681116128b35760405162461bcd60e51b81526004016108f990615930565b83546001600160601b0319166001600160601b038381169190911785556035546036546128e3928792169061484d565b5083546000906128fc906001600160601b031684615961565b905060011515866001600160a01b0316600080516020615d8583398151915283604051612929919061546c565b60405180910390a361293e8686836000613e23565b8454611b8f908790610e7f906001600160601b031685615961565b6000610c68600383613b02565b6001600160a01b03811660009081526002602052604081205480156129ed576001600160a01b03831660009081526002602052604090206129e8906129ac600184615b42565b815481106129bc576129bc615b59565b90600052602060002090600291828204019190066010029054906101000a90046001600160801b031690565b6129f0565b60005b9392505050565b6001600160a01b038082166000908152603960205260409020548291600160601b9091041615801590612a5c57506001600160a01b038116331480612a5c57506001600160a01b03818116600090815260396020526040902054600160601b90041633145b612a785760405162461bcd60e51b81526004016108f990615832565b6001600160a01b0382166000908152603960205260409020600481015415612adb5760405162461bcd60e51b815260206004820152601660248201527514dd185ad9481cdd1a5b1b08185d5d1a1bdc9a5e995960521b60448201526064016108f9565b42620151808260050154612aef9190615989565b1115612b0d5760405162461bcd60e51b81526004016108f9906159a1565b8054600182015460028301546000926001600160601b0390811692612b369290821691166158ad565b612b4091906158ad565b9050836001600160a01b0316600080516020615dc583398151915282604051612b69919061546c565b60405180910390a26002820180546001600160601b031980821690925560018401805483169055835490911683556001600160601b0316612baa8583613e17565b6001600160601b038116156113b75782546113b7906001600160a01b037f0000000000000000000000000000000000000000000000000000000000000000811691600160601b9004166001600160601b0384166142f6565b6001600160a01b03808216600090815260396020526040902080549091600160601b909104163314612c465760405162461bcd60e51b81526004016108f990615ba3565b60405162f9934b60e11b81526000906001600160a01b037f000000000000000000000000000000000000000000000000000000000000000016906301f3269690612c949086906004016154c7565b60206040518083038186803b158015612cac57600080fd5b505afa158015612cc0573d6000803e3d6000fd5b505050506040513d601f19601f82011682018060405250810190612ce49190615a60565b82546040519192506001600160a01b0380841692600160601b909204811691908616907fda8908ea0ecabda6b6dec96ed40b9c47ffbf9be10f30912965c984face902e1490600090a481546001600160a01b03909116600160601b026001600160601b0390911617905550565b6033546001600160a01b03163314612d7b5760405162461bcd60e51b81526004016108f9906157c7565b60348190556040518181527ff82f602e8097a5c312216f60ca94cd1ff03aac29893f9adef7ed7e6ae33c76e290602001611e55565b60036001600160a01b0382166000908152603a602052604090205460ff166003811115612ddf57612ddf615397565b14612e2a5760405162461bcd60e51b815260206004820152601b60248201527a105c1c1b1a58d85d1a5bdb881a5cc81b9bdd08191a5cd8589b1959602a1b60448201526064016108f9565b6001600160a01b038083166000908152603960209081526040808320938516835260038401909152902080546001600160601b031680612eac5760405162461bcd60e51b815260206004820152601d60248201527f4170706c69636174696f6e206973206e6f7420617574686f72697a656400000060448201526064016108f9565b81546001600160c01b03191682556040516001600160a01b038086169190871690600080516020615da583398151915290612eeb908590600090615afe565b60405180910390a36113b78360016143f8565b603c54603d54108015612f115750600081115b612f525760405162461bcd60e51b81526020600482015260126024820152714e6f7468696e6720746f2070726f6365737360701b60448201526064016108f9565b600081603d54612f629190615989565b9050612f7381603c80549050614318565b9050603d5481612f839190615b42565b603d549092506000905b82811015612fe3576000603c8281548110612faa57612faa615b59565b90600052602060002090600202019050612fc3816149eb565b612fcd90846158ad565b9250508080612fdb90615b6f565b915050612f8d565b603d8190556000612ffe6001600160601b0384166005614d24565b905061300981614327565b6130139084615961565b6001600160601b03166037600082825461302d9190615989565b9091555050604080518681526020810183905233917f8efe68d059265c97157a10a6aadc9afe80dfa0e96fc959c4de863300e244e156910160405180910390a280156113b7576113b76001600160a01b037f00000000000000000000000000000000000000000000000000000000000000001633836142f6565b6033546001600160a01b031633146130d15760405162461bcd60e51b81526004016108f9906157c7565b6110508161457f565b6033546001600160a01b031633146131045760405162461bcd60e51b81526004016108f9906157c7565b6001600160601b0381166038556040517fd579c7b509b9a61b7408309a980bcfcbbf0f336f1b2bb0a760d71f72f0cf313290611e5590839061546c565b6001600160a01b038083166000908152603960205260409020548391600160601b90910416158015906131a657506001600160a01b0381163314806131a657506001600160a01b03818116600090815260396020526040902054600160601b90041633145b6131c25760405162461bcd60e51b81526004016108f990615832565b6001600160a01b03831660009081526039602052604090206001600160601b0383161580159061321e57506002808201546001600160601b031690613208908690611f80565b61321290856158ad565b6001600160601b031611155b61323a5760405162461bcd60e51b81526004016108f990615aa9565b4262015180826005015461324e9190615989565b111561326c5760405162461bcd60e51b81526004016108f9906159a1565b60028101805484919060009061328c9084906001600160601b0316615961565b92506101000a8154816001600160601b0302191690836001600160601b031602179055506132ba8484613e17565b836001600160a01b0316600080516020615dc5833981519152846040516132e1919061546c565b60405180910390a28054610b21906001600160a01b037f0000000000000000000000000000000000000000000000000000000000000000811691600160601b9004166001600160601b0386166142f6565b603b818154811061334257600080fd5b6000918252602090912001546001600160a01b0316905081565b6033546001600160a01b031633146133865760405162461bcd60e51b81526004016108f9906157c7565b6001600160a01b0381166133ac5760405162461bcd60e51b81526004016108f990615861565b6001600160a01b0381166000908152603a6020526040812090815460ff1660038111156133db576133db615397565b14806133fc57506002815460ff1660038111156133fa576133fa615397565b145b6134445760405162461bcd60e51b815260206004820152601960248201527821b0b713ba1030b8383937bb329030b8383634b1b0ba34b7b760391b60448201526064016108f9565b6000815460ff16600381111561345c5761345c615397565b14156134ae57603b80546001810182556000919091527fbbe3212124853f8b0084a66a2d057c2966e251e132af3691db153ab65f0d1a4d0180546001600160a01b0319166001600160a01b0384161790555b805460ff191660019081178255610f6b565b6001600160a01b038082166000908152603960205260409020548291600160601b909104161580159061352557506001600160a01b03811633148061352557506001600160a01b03818116600090815260396020526040902054600160601b90041633145b6135415760405162461bcd60e51b81526004016108f990615832565b6001600160a01b0382166000908152603960205260408120906135638461421e565b60018301549091506001600160601b03908116908216116135965760405162461bcd60e51b81526004016108f9906159d8565b60018201546000906135b1906001600160601b031683615961565b9050846001600160a01b0316600080516020615de5833981519152826040516135da919061546c565b60405180910390a26001830180546001600160601b0319166001600160601b0384161790556113b78582613aea565b6108cb82600080846145d2565b60408051808201909152600080825260208201526001600160a01b0383166000908152600260205260408120805482916136979163ffffffff871690811061366057613660615b59565b90600052602060002090600291828204019190066010029054906101000a90046001600160801b031663ffffffff606082901c1691565b6040805180820190915263ffffffff90921682526001600160601b0316602082015295945050505050565b603c81815481106136d257600080fd5b6000918252602090912060029091020180546001909101546001600160a01b038083169350600160a01b9092046001600160601b0316911683565b6001600160a01b038084166000908152603960205260409020600201548491600160601b9091041633146137535760405162461bcd60e51b81526004016108f990615ad6565b6001600160a01b0383166000908152603a602052604090206001815460ff16600381111561378357613783615397565b146137a05760405162461bcd60e51b81526004016108f9906157fd565b6001600160a01b038086166000908152603960209081526040808320938816835260038401909152902080546001600160601b0316806138635760345415806137ee57506034546004840154105b6138325760405162461bcd60e51b8152602060048201526015602482015274546f6f206d616e79206170706c69636174696f6e7360581b60448201526064016108f9565b600483018054600181018255600091825260209091200180546001600160a01b0319166001600160a01b0389161790555b600061386f89896126ea565b9050866001600160601b0316816001600160601b031610156138d35760405162461bcd60e51b815260206004820152601d60248201527f4e6f7420656e6f756768207374616b6520746f20617574686f72697a6500000060448201526064016108f9565b8254879084906000906138f09084906001600160601b03166158ad565b92506101000a8154816001600160601b0302191690836001600160601b03160217905550876001600160a01b0316896001600160a01b03167f87f9f9f59204f53d57a89a817c6083a17979cd0531791c91e18551a56e3cfdd7848660000160009054906101000a90046001600160601b0316604051613970929190615afe565b60405180910390a3825460405163c9bacaad60e01b81526001600160a01b038a169163c9bacaad916139b2918d9187916001600160601b031690600401615b18565b600060405180830381600087803b1580156139cc57600080fd5b505af11580156139e0573d6000803e3d6000fd5b50505050505050505050505050565b3b151590565b6001600160a01b03808316600090815260396020526040902080549091600160601b909104163314613a395760405162461bcd60e51b81526004016108f990615ba3565b8054600182015460028301546000926001600160601b0390811692613a629290821691166158ad565b613a6c91906158ad565b90506000613a798561171f565b6001600160a01b0386811660008181526001602052604080822080546001600160a01b0319168a8616908117909155905194955093928516927f3134e8a2e6d97e929a7e54011ea5485d7d196dd5f0ba4d4ef95803e8e3fc257f9190a46113b78185846001600160601b0316614d3c565b6108cb82826001614e46565b610b2184848484614f20565b6000438210613b4e5760405162461bcd60e51b8152602060048201526018602482015277109b1bd8dac81b9bdd081e595d0819195d195c9b5a5b995960421b60448201526064016108f9565b825460005b81811015613bd7576000613b678284614f8b565b90506000613baa878381548110613b8057613b80615b59565b6000918252602090912060028204015463ffffffff60019092166010026101000a900460601c1690565b9050858163ffffffff161115613bc257819350613bd0565b613bcd826001615989565b92505b5050613b53565b8115613bf157613bec856129ac600185615b42565b6120e6565b506000949350505050565b600080613c1066038d7ea4c6800085615be6565b90506000613c1e8286615b42565b9050613c4466038d7ea4c68000613c358684615bfa565b613c3f9190615c19565b614327565b9250509250929050565b60018401546000906001600160601b0316613c6a575081612762565b60018501546000906001600160601b0390811690851611613c8c575082613c9c565b5060018501546001600160601b03165b600080613cc9837f00000000000000000000000000000000000000000000000000000000000000006140f5565b915091508160001415613ce157859350505050612762565b613ceb8184615961565b6001890180549194508491600090613d0d9084906001600160601b0316615961565b92506101000a8154816001600160601b0302191690836001600160601b031602179055508286613d3d9190615961565b60408051600180825281830190925291975060009190602080830190803683370190505090508781600081518110613d7757613d77615b59565b6001600160a01b039283166020918202929092010152604051629055e960e41b81527f0000000000000000000000000000000000000000000000000000000000000000909116906309055e9090613dd89086908a9033908790600401615c2d565b600060405180830381600087803b158015613df257600080fd5b505af1158015613e06573d6000803e3d6000fd5b50989b9a5050505050505050505050565b6108cb82826000614e46565b6001830154835460028501546000926001600160601b0390811692613e4c9290821691166158ad565b613e5691906158ad565b90506000805b60048601548110156140e4576000866004018281548110613e7f57613e7f615b59565b60009182526020808320909101546001600160a01b0390811680845260038b0190925260409092208054919350916001600160601b039091169087161580613ed85750866001600160a01b0316836001600160a01b0316145b15613f4057613efc613c3f826001600160601b03168a6001600160601b0316614318565b82548390600090613f179084906001600160601b0316615961565b92506101000a8154816001600160601b0302191690836001600160601b03160217905550613f61565b856001600160601b0316816001600160601b031611613f61575050506140d2565b81546001600160601b0380881691161115613f905781546001600160601b0319166001600160601b0387161782555b600060019050836001600160a01b03166314a854746203d0908d858760000160009054906101000a90046001600160601b03166040518563ffffffff1660e01b8152600401613fe193929190615b18565b600060405180830381600088803b158015613ffb57600080fd5b5087f19350505050801561400d575060015b614015575060005b82546001600160601b03808216600160601b909204161115614056578254600160601b6001600160601b03821602600160601b600160c01b03199091161783555b8254604051821515916001600160a01b0380881692908f16917f0f0171fffaa54732b1f79a3164b315658061a1a51bf8c1010fbed908a8e333f9916140a89188916001600160601b0390911690615afe565b60405180910390a482546001600160601b03166140cd57856140c981615b6f565b9650505b505050505b806140dc81615b6f565b915050613e5c565b508015611b8f57611b8f85826143f8565b60008061410e613c3f846001600160601b038716615be6565b9050600061411c8286615961565b6001600160601b031690508361413966038d7ea4c6800083615bfa565b613c449190615c19565b6000807f00000000000000000000000000000000000000000000000000000000000000006001600160a01b0316633223ff4b85856040518363ffffffff1660e01b8152600401614194929190615c97565b602060405180830381600087803b1580156141ae57600080fd5b505af11580156141c2573d6000803e3d6000fd5b505050506040513d601f19601f820116820180604052508101906141e69190615b8a565b90506000614214827f0000000000000000000000000000000000000000000000000000000000000000613bfc565b5095945050505050565b6000807f00000000000000000000000000000000000000000000000000000000000000006001600160a01b031663afff33ef84306040518363ffffffff1660e01b815260040161426f929190615c97565b60206040518083038186803b15801561428757600080fd5b505afa15801561429b573d6000803e3d6000fd5b505050506040513d601f19601f820116820180604052508101906142bf9190615b8a565b905060006142ed827f0000000000000000000000000000000000000000000000000000000000000000613bfc565b50949350505050565b6126e5838383614fa6565b6000818310156143115781610c65565b5090919050565b60008183106143115781610c65565b60006001600160601b0382111561438f5760405162461bcd60e51b815260206004820152602660248201527f53616665436173743a2076616c756520646f65736e27742066697420696e203960448201526536206269747360d01b60648201526084016108f9565b5090565b600063ffffffff82111561438f5760405162461bcd60e51b815260206004820152602660248201527f53616665436173743a2076616c756520646f65736e27742066697420696e203360448201526532206269747360d01b60648201526084016108f9565b600482015481811415614413576126e5600484016000615327565b600080806144218585615b42565b90505b808210801561443257508483105b1561452c57600086600401838154811061444e5761444e615b59565b60009182526020808320909101546001600160a01b031680835260038a019091526040909120549091506001600160601b0316614518576004870160016144958688615b42565b61449f9190615b42565b815481106144af576144af615b59565b6000918252602090912001546004880180546001600160a01b0390921691859081106144dd576144dd615b59565b600091825260209091200180546001600160a01b0319166001600160a01b03929092169190911790558361451081615b6f565b945050614526565b8261452281615b6f565b9350505b50614424565b8091505b83821015611b8f578560040180548061454b5761454b615cb1565b600082815260209020810160001990810180546001600160a01b03191690550190558161457781615b6f565b925050614530565b603380546001600160a01b038381166001600160a01b03198316179092556040519116907f5f56bee8cffbe9a78652a74a60705edede02af10b0bbb888ca44b79a0d42ce80906123139083908590615c97565b6000846001600160601b03161180156145ec575060008151115b6146085760405162461bcd60e51b81526004016108f990615861565b336000908152603a602052604090206001815460ff16600381111561462f5761462f615397565b1461464c5760405162461bcd60e51b81526004016108f9906157fd565b603c5460005b835181101561476e57600084828151811061466f5761466f615b59565b6020908102919091018101516001600160a01b0381166000908152603983526040808220338352600301909352918220549092506146ba906001600160601b03908116908b16614318565b9050806146c857505061475c565b603c6040518060600160405280846001600160a01b031681526020016146ed84614327565b6001600160601b03908116825233602092830152835460018181018655600095865294839020845193850151909216600160a01b026001600160a01b03938416176002909102909101908155604090920151919092018054919092166001600160a01b03199190911617905550505b8061476681615b6f565b915050614652565b506001600160a01b03841615611b8f5760006147a88660385484603c805490506147989190615b42565b6147a29190615bfa565b90614d24565b90506147b681603754614318565b9050846001600160a01b03167f104879b09c38b3b66d79ce8f4cbdcfbe117b79797db65a37ef151d22b5e31471826040516147f391815260200190565b60405180910390a28015610e915780603760008282546148139190615b42565b90915550610e9190506001600160a01b037f00000000000000000000000000000000000000000000000000000000000000001686836142f6565b82546000906001600160601b03166148665750816129f0565b83546000906001600160601b0390811690851611614885575082614892565b5083546001600160601b03165b6000806148bf837f00000000000000000000000000000000000000000000000000000000000000006140f5565b9150915081600014156148d7578593505050506129f0565b6148e18184615961565b8754909350839088906000906149019084906001600160601b0316615961565b92506101000a8154816001600160601b0302191690836001600160601b0316021790555082866149319190615961565b95506000614944866147a2856005614d24565b8854604051632673086360e21b81526001600160a01b03600160601b9092048216600482015260248101869052336044820152606481018390529192507f000000000000000000000000000000000000000000000000000000000000000016906399cc218c90608401600060405180830381600087803b1580156149c757600080fd5b505af11580156149db573d6000803e3d6000fd5b50989a9950505050505050505050565b80546001600160a01b0381166000908152603960205260408120805460018201546002830154939492936001600160601b03600160a01b9094048416938693811692614a3b9290821691166158ad565b614a4591906158ad565b60028401549091506001600160601b031615614adf5760028301546001600160601b0390811690831611614a7b57819350614a8c565b60028301546001600160601b031693505b600283018054859190600090614aac9084906001600160601b0316615961565b92506101000a8154816001600160601b0302191690836001600160601b031602179055508382614adc9190615961565b91505b6000826001600160601b0316118015614b04575060018301546001600160601b031615155b15614c1a578454604051637d5a36b360e11b81526000916001600160a01b037f000000000000000000000000000000000000000000000000000000000000000081169263fab46d6692614b5b9216906004016154c7565b60606040518083038186803b158015614b7357600080fd5b505afa158015614b87573d6000803e3d6000fd5b505050506040513d601f19601f82011682018060405250810190614bab9190615902565b505090506000614bdb827f0000000000000000000000000000000000000000000000000000000000000000613bfc565b506001860180546001600160601b0319166001600160601b0383161790558754909150614c159086906001600160a01b0316866064613c4e565b935050505b6000826001600160601b0316118015614c3c575082546001600160601b031615155b15614c5057614c4d8383606461484d565b91505b8454600090614c70908490600160a01b90046001600160601b0316615961565b86546040519192506000916001600160a01b0390911690600080516020615d8583398151915290614ca290859061546c565b60405180910390a385546001870154614ccb916001600160a01b03908116918791859116613e23565b8354600185015460028601546000926001600160601b0390811692614cf49290821691166158ad565b614cfe91906158ad565b8754909150614d1a906001600160a01b0316610e7f8386615961565b5050505050919050565b60006064614d328385615bfa565b610c659190615c19565b816001600160a01b0316836001600160a01b031614158015614d5e5750600081115b156126e5576001600160a01b03831615614dda576001600160a01b03831660009081526002602052604081208190614d9990614fd685614fe2565b91509150846001600160a01b0316600080516020615e258339815191528383604051614dcf929190918252602082015260400190565b60405180910390a250505b6001600160a01b038216156126e5576001600160a01b03821660009081526002602052604081208190614e109061513e85614fe2565b91509150836001600160a01b0316600080516020615e258339815191528383604051611911929190918252602082015260400190565b6001600160601b038216614e5957505050565b614e7e600382614e6b57614fd6614e6f565b61513e5b846001600160601b0316614fe2565b50506000614e8b8461171f565b90506001600160a01b03811615610b21576001600160a01b03811660009081526002602052604081208190614eda9085614ec757614fd6614ecb565b61513e5b876001600160601b0316614fe2565b91509150826001600160a01b0316600080516020615e258339815191528383604051614f10929190918252602082015260400190565b60405180910390a2505050505050565b6040516001600160a01b0380851660248301528316604482015260648101829052610b219085906323b872dd60e01b906084015b60408051601f198184030181529190526020810180516001600160e01b03166001600160e01b03199093169290921790915261514a565b6000614f9a6002848418615c19565b610c6590848416615989565b6040516001600160a01b0383166024820152604481018290526126e590849063a9059cbb60e01b90606401614f54565b6000610c658284615b42565b82546000908190801561500357614ffe866129ac600184615b42565b615006565b60005b6001600160601b0316925061501f83858763ffffffff16565b915080156150df57600061504887615038600185615b42565b81548110613b8057613b80615b59565b9050438163ffffffff1614156150dd576150818161506585614327565b6001600160601b031660609190911b63ffffffff60601b161790565b8761508d600185615b42565b8154811061509d5761509d615b59565b90600052602060002090600291828204019190066010026101000a8154816001600160801b0302191690836001600160801b031602179055505050615136565b505b856150f56150ec43614393565b61506585614327565b81546001818101845560009384526020909320600282040180546001600160801b03938416601093909516929092026101000a938402929093021916179055505b935093915050565b6000610c658284615989565b600061519f826040518060400160405280602081526020017f5361666545524332303a206c6f772d6c6576656c2063616c6c206661696c6564815250856001600160a01b031661521c9092919063ffffffff16565b8051909150156126e557808060200190518101906151bd9190615cc7565b6126e55760405162461bcd60e51b815260206004820152602a60248201527f5361666545524332303a204552433230206f7065726174696f6e20646964206e6044820152691bdd081cdd58d8d9595960b21b60648201526084016108f9565b6060612762848460008585843b6152755760405162461bcd60e51b815260206004820152601d60248201527f416464726573733a2063616c6c20746f206e6f6e2d636f6e747261637400000060448201526064016108f9565b600080866001600160a01b031685876040516152919190615d15565b60006040518083038185875af1925050503d80600081146152ce576040519150601f19603f3d011682016040523d82523d6000602084013e6152d3565b606091505b50915091506152e38282866152ee565b979650505050505050565b606083156152fd5750816129f0565b82511561530d5782518084602001fd5b8160405162461bcd60e51b81526004016108f99190615d31565b508054600082559060005260206000209081019061105091905b8082111561438f5760008155600101615341565b6001600160a01b038116811461105057600080fd5b803561537581615355565b919050565b60006020828403121561538c57600080fd5b81356129f081615355565b634e487b7160e01b600052602160045260246000fd5b60408101600484106153cf57634e487b7160e01b600052602160045260246000fd5b9281526001600160a01b039190911660209091015290565b600080604083850312156153fa57600080fd5b823561540581615355565b9150602083013561541581615355565b809150509250929050565b80356001600160601b038116811461537557600080fd5b6000806040838503121561544a57600080fd5b823561545581615355565b915061546360208401615420565b90509250929050565b6001600160601b0391909116815260200190565b6000806040838503121561549357600080fd5b823561549e81615355565b946020939093013593505050565b6000602082840312156154be57600080fd5b610c6582615420565b6001600160a01b0391909116815260200190565b600080600080608085870312156154f157600080fd5b84356154fc81615355565b9350602085013561550c81615355565b9250604085013561551c81615355565b915061552a60608601615420565b905092959194509250565b60008060006060848603121561554a57600080fd5b833561555581615355565b9250602084013561556581615355565b915061557360408501615420565b90509250925092565b6000806040838503121561558f57600080fd5b823561559a81615355565b915060208301356003811061541557600080fd5b600080604083850312156155c157600080fd5b61549e83615420565b6000806000606084860312156155df57600080fd5b83356155ea81615355565b925060208401356155fa81615355565b9150604084013561560a81615355565b809150509250925092565b634e487b7160e01b600052604160045260246000fd5b600082601f83011261563c57600080fd5b813560206001600160401b038083111561565857615658615615565b8260051b604051601f19603f8301168101818110848211171561567d5761567d615615565b60405293845285810183019383810192508785111561569b57600080fd5b83870191505b848210156152e3576156b28261536a565b835291830191908301906156a1565b600080600080608085870312156156d757600080fd5b6156e085615420565b93506020850135925060408501356156f781615355565b915060608501356001600160401b0381111561571257600080fd5b61571e8782880161562b565b91505092959194509250565b60006020828403121561573c57600080fd5b5035919050565b6000806040838503121561575657600080fd5b61575f83615420565b915060208301356001600160401b0381111561577a57600080fd5b6157868582860161562b565b9150509250929050565b600080604083850312156157a357600080fd5b82356157ae81615355565b9150602083013563ffffffff8116811461541557600080fd5b6020808252601c908201527b43616c6c6572206973206e6f742074686520676f7665726e616e636560201b604082015260600190565b6020808252601b908201527a105c1c1b1a58d85d1a5bdb881a5cc81b9bdd08185c1c1c9bdd9959602a1b604082015260600190565b6020808252601590820152742737ba1037bbb732b91037b910383937bb34b232b960591b604082015260600190565b6020808252601c908201527b14185c985b595d195c9cc81b5d5cdd081899481cdc1958da599a595960221b604082015260600190565b634e487b7160e01b600052601160045260246000fd5b60006001600160601b038281168482168083038211156158cf576158cf615897565b01949350505050565b60208082526010908201526f09cdee8d0d2dcce40e8de40e6d8c2e6d60831b604082015260600190565b60008060006060848603121561591757600080fd5b8351925060208401519150604084015190509250925092565b6020808252601790820152765468657265206973206e6f2064697363726570616e637960481b604082015260600190565b60006001600160601b038381169083168181101561598157615981615897565b039392505050565b6000821982111561599c5761599c615897565b500190565b6020808252601e908201527f43616e277420756e7374616b65206561726c696572207468616e203234680000604082015260600190565b60208082526011908201527004e6f7468696e6720746f20746f702d757607c1b604082015260600190565b6020808252601a908201527950726f766964657220697320616c726561647920696e2075736560301b604082015260600190565b6020808252600f908201526e4e6f7468696e6720746f2073796e6360881b604082015260600190565b600060208284031215615a7257600080fd5b81516129f081615355565b6001600160a01b0393841681529190921660208201526001600160601b03909116604082015260600190565b602080825260139082015272546f6f206d75636820746f20756e7374616b6560681b604082015260600190565b6020808252600e908201526d2737ba1030baba3437b934bd32b960911b604082015260600190565b6001600160601b0392831681529116602082015260400190565b6001600160a01b039390931683526001600160601b03918216602084015216604082015260600190565b600082821015615b5457615b54615897565b500390565b634e487b7160e01b600052603260045260246000fd5b6000600019821415615b8357615b83615897565b5060010190565b600060208284031215615b9c57600080fd5b5051919050565b60208082526013908201527221b0b63632b91034b9903737ba1037bbb732b960691b604082015260600190565b634e487b7160e01b600052601260045260246000fd5b600082615bf557615bf5615bd0565b500690565b6000816000190483118215151615615c1457615c14615897565b500290565b600082615c2857615c28615bd0565b500490565b84815260208082018590526001600160a01b038481166040840152608060608401819052845190840181905260009285810192909160a0860190855b81811015615c87578551841683529484019491840191600101615c69565b50909a9950505050505050505050565b6001600160a01b0392831681529116602082015260400190565b634e487b7160e01b600052603160045260246000fd5b600060208284031215615cd957600080fd5b815180151581146129f057600080fd5b60005b83811015615d04578181015183820152602001615cec565b83811115610b215750506000910152565b60008251615d27818460208701615ce9565b9190910192915050565b6020815260008251806020840152615d50816040850160208701615ce9565b601f01601f1916919091016040019291505056fe96a3c8e9780312d2e82e746b65a21aaca458dd91c375fea6066416ef241e87cbfab4356687062505cc650292203fc214dc8cb4b8bd603e53699e3297186e8dd6dfabb38007f28b342b8f536c8c832f746c2a53627133be65453ac0b98968f40e1221739f34decc066e1d68b15c5fc76b65e7ebe2f08c9f38b3ea3092f9912353b8f8e488e98410126386f575c0e233d2effb198a4e68af68ab1de9c2e542ae82e5beba097f34db5d25b3e8383f0c9ba0b9fe180a3a8d2e761c11207221386dfddec2bacdd2f05b59de34da9b523dff8be42e5e38e818c82fdb0bae774387a724a264697066735822122000a991ecaca95422cc2f2fcaa8a431b3519b3e5cadcb8cfcde3d40e3662e8e4064736f6c63430008090033",
  "linkReferences": {},
  "deployedLinkReferences": {}
}